{
  "contractName": "RPay",
  "abi": [
    {
      "inputs": [
        {
          "internalType": "address",
          "name": "owner",
          "type": "address"
        },
        {
          "internalType": "string",
          "name": "name",
          "type": "string"
        }
      ],
      "stateMutability": "nonpayable",
      "type": "constructor"
    },
    {
      "anonymous": false,
      "inputs": [
        {
          "indexed": true,
          "internalType": "address",
          "name": "fromAddress",
          "type": "address"
        },
        {
          "indexed": true,
          "internalType": "address",
          "name": "toAddress",
          "type": "address"
        }
      ],
      "name": "AddProxy",
      "type": "event"
    },
    {
      "anonymous": false,
      "inputs": [
        {
          "indexed": true,
          "internalType": "uint256",
          "name": "projectID",
          "type": "uint256"
        },
        {
          "indexed": true,
          "internalType": "address",
          "name": "userAddress",
          "type": "address"
        },
        {
          "indexed": true,
          "internalType": "uint256",
          "name": "value",
          "type": "uint256"
        }
      ],
      "name": "Deposit",
      "type": "event"
    },
    {
      "anonymous": false,
      "inputs": [
        {
          "indexed": true,
          "internalType": "uint256",
          "name": "id",
          "type": "uint256"
        },
        {
          "indexed": true,
          "internalType": "uint256",
          "name": "projectID",
          "type": "uint256"
        }
      ],
      "name": "MilestoneCreated",
      "type": "event"
    },
    {
      "anonymous": false,
      "inputs": [
        {
          "indexed": true,
          "internalType": "address",
          "name": "previousOwner",
          "type": "address"
        },
        {
          "indexed": true,
          "internalType": "address",
          "name": "newOwner",
          "type": "address"
        }
      ],
      "name": "OwnershipTransferred",
      "type": "event"
    },
    {
      "anonymous": false,
      "inputs": [
        {
          "indexed": true,
          "internalType": "uint256",
          "name": "id",
          "type": "uint256"
        }
      ],
      "name": "ProjectCreated",
      "type": "event"
    },
    {
      "anonymous": false,
      "inputs": [
        {
          "indexed": true,
          "internalType": "address",
          "name": "fromAddress",
          "type": "address"
        },
        {
          "indexed": true,
          "internalType": "address",
          "name": "toAddress",
          "type": "address"
        }
      ],
      "name": "RemoveProxy",
      "type": "event"
    },
    {
      "anonymous": false,
      "inputs": [
        {
          "indexed": true,
          "internalType": "uint256",
          "name": "projectID",
          "type": "uint256"
        },
        {
          "indexed": true,
          "internalType": "address",
          "name": "userAddress",
          "type": "address"
        },
        {
          "indexed": true,
          "internalType": "uint256",
          "name": "value",
          "type": "uint256"
        }
      ],
      "name": "WithdrawClient",
      "type": "event"
    },
    {
      "anonymous": false,
      "inputs": [
        {
          "indexed": true,
          "internalType": "uint256",
          "name": "projectID",
          "type": "uint256"
        },
        {
          "indexed": true,
          "internalType": "address",
          "name": "userAddress",
          "type": "address"
        },
        {
          "indexed": true,
          "internalType": "uint256",
          "name": "value",
          "type": "uint256"
        }
      ],
      "name": "WithdrawOwner",
      "type": "event"
    },
    {
      "inputs": [],
      "name": "name",
      "outputs": [
        {
          "internalType": "string",
          "name": "",
          "type": "string"
        }
      ],
      "stateMutability": "view",
      "type": "function"
    },
    {
      "inputs": [],
      "name": "owner",
      "outputs": [
        {
          "internalType": "address",
          "name": "",
          "type": "address"
        }
      ],
      "stateMutability": "view",
      "type": "function"
    },
    {
      "inputs": [
        {
          "internalType": "string",
          "name": "name",
          "type": "string"
        },
        {
          "internalType": "string",
          "name": "meta",
          "type": "string"
        },
        {
          "internalType": "uint256",
          "name": "startDate",
          "type": "uint256"
        },
        {
          "internalType": "uint256",
          "name": "dueDate",
          "type": "uint256"
        },
        {
          "internalType": "address",
          "name": "client",
          "type": "address"
        },
        {
          "internalType": "address",
          "name": "token",
          "type": "address"
        },
        {
          "internalType": "uint256",
          "name": "value",
          "type": "uint256"
        },
        {
          "internalType": "uint256",
          "name": "frequency",
          "type": "uint256"
        }
      ],
      "name": "createProject",
      "outputs": [
        {
          "internalType": "uint256",
          "name": "projectID",
          "type": "uint256"
        }
      ],
      "stateMutability": "nonpayable",
      "type": "function"
    },
    {
      "inputs": [
        {
          "internalType": "uint256",
          "name": "projectID",
          "type": "uint256"
        },
        {
          "internalType": "string",
          "name": "name",
          "type": "string"
        },
        {
          "internalType": "string",
          "name": "meta",
          "type": "string"
        },
        {
          "internalType": "uint256",
          "name": "startDate",
          "type": "uint256"
        },
        {
          "internalType": "uint256",
          "name": "dueDate",
          "type": "uint256"
        },
        {
          "internalType": "uint256",
          "name": "value",
          "type": "uint256"
        }
      ],
      "name": "createMilestone",
      "outputs": [
        {
          "internalType": "uint256",
          "name": "milestoneID",
          "type": "uint256"
        }
      ],
      "stateMutability": "nonpayable",
      "type": "function"
    },
    {
      "inputs": [
        {
          "internalType": "uint256",
          "name": "projectID",
          "type": "uint256"
        },
        {
          "internalType": "uint256",
          "name": "value",
          "type": "uint256"
        }
      ],
      "name": "deposit",
      "outputs": [
        {
          "internalType": "bool",
          "name": "",
          "type": "bool"
        }
      ],
      "stateMutability": "nonpayable",
      "type": "function"
    },
    {
      "inputs": [
        {
          "internalType": "uint256",
          "name": "projectID",
          "type": "uint256"
        },
        {
          "internalType": "uint256",
          "name": "value",
          "type": "uint256"
        },
        {
          "internalType": "uint256",
          "name": "num",
          "type": "uint256"
        }
      ],
      "name": "withdrawOwner",
      "outputs": [
        {
          "internalType": "bool",
          "name": "",
          "type": "bool"
        }
      ],
      "stateMutability": "nonpayable",
      "type": "function"
    },
    {
      "inputs": [
        {
          "internalType": "uint256",
          "name": "projectID",
          "type": "uint256"
        },
        {
          "internalType": "uint256",
          "name": "value",
          "type": "uint256"
        }
      ],
      "name": "withdrawClient",
      "outputs": [
        {
          "internalType": "bool",
          "name": "",
          "type": "bool"
        }
      ],
      "stateMutability": "nonpayable",
      "type": "function"
    },
    {
      "inputs": [],
      "name": "getProjects",
      "outputs": [
        {
          "components": [
            {
              "internalType": "string",
              "name": "name",
              "type": "string"
            },
            {
              "internalType": "string",
              "name": "meta",
              "type": "string"
            },
            {
              "internalType": "uint256",
              "name": "startDate",
              "type": "uint256"
            },
            {
              "internalType": "uint256",
              "name": "dueDate",
              "type": "uint256"
            },
            {
              "internalType": "uint256",
              "name": "endDate",
              "type": "uint256"
            },
            {
              "internalType": "address",
              "name": "client",
              "type": "address"
            },
            {
              "internalType": "address",
              "name": "token",
              "type": "address"
            },
            {
              "internalType": "uint256",
              "name": "value",
              "type": "uint256"
            },
            {
              "internalType": "uint256",
              "name": "deposited",
              "type": "uint256"
            },
            {
              "internalType": "uint256",
              "name": "withdrawnClient",
              "type": "uint256"
            },
            {
              "internalType": "uint256",
              "name": "withdrawnOwner",
              "type": "uint256"
            },
            {
              "internalType": "uint256",
              "name": "discount",
              "type": "uint256"
            },
            {
              "internalType": "uint256",
              "name": "frequency",
              "type": "uint256"
            },
            {
              "internalType": "uint256",
              "name": "clientApproved",
              "type": "uint256"
            },
            {
              "internalType": "bool",
              "name": "isEntity",
              "type": "bool"
            }
          ],
          "internalType": "struct RPay.ProjectStruct[]",
          "name": "",
          "type": "tuple[]"
        }
      ],
      "stateMutability": "view",
      "type": "function"
    },
    {
      "inputs": [],
      "name": "getMilestones",
      "outputs": [
        {
          "components": [
            {
              "internalType": "uint256",
              "name": "projectID",
              "type": "uint256"
            },
            {
              "internalType": "string",
              "name": "name",
              "type": "string"
            },
            {
              "internalType": "string",
              "name": "meta",
              "type": "string"
            },
            {
              "internalType": "uint256",
              "name": "startDate",
              "type": "uint256"
            },
            {
              "internalType": "uint256",
              "name": "dueDate",
              "type": "uint256"
            },
            {
              "internalType": "uint256",
              "name": "endDate",
              "type": "uint256"
            },
            {
              "internalType": "uint256",
              "name": "value",
              "type": "uint256"
            },
            {
              "internalType": "uint256",
              "name": "clientApproved",
              "type": "uint256"
            },
            {
              "internalType": "bool",
              "name": "isEntity",
              "type": "bool"
            }
          ],
          "internalType": "struct RPay.MilestoneStruct[]",
          "name": "",
          "type": "tuple[]"
        }
      ],
      "stateMutability": "view",
      "type": "function"
    },
    {
      "inputs": [
        {
          "internalType": "address",
          "name": "newOwner",
          "type": "address"
        }
      ],
      "name": "transferOwnership",
      "outputs": [],
      "stateMutability": "nonpayable",
      "type": "function"
    },
    {
      "inputs": [
        {
          "internalType": "address",
          "name": "proxyAddress",
          "type": "address"
        },
        {
          "internalType": "bool",
          "name": "canDeposit",
          "type": "bool"
        },
        {
          "internalType": "bool",
          "name": "canWithdraw",
          "type": "bool"
        }
      ],
      "name": "addProxy",
      "outputs": [
        {
          "internalType": "bool",
          "name": "",
          "type": "bool"
        }
      ],
      "stateMutability": "nonpayable",
      "type": "function"
    },
    {
      "inputs": [
        {
          "internalType": "address",
          "name": "proxyAddress",
          "type": "address"
        }
      ],
      "name": "removeProxy",
      "outputs": [],
      "stateMutability": "nonpayable",
      "type": "function"
    },
    {
      "inputs": [
        {
          "internalType": "address",
          "name": "userAddress",
          "type": "address"
        }
      ],
      "name": "isOwnerClientOrProxy",
      "outputs": [
        {
          "internalType": "uint8",
          "name": "",
          "type": "uint8"
        },
        {
          "internalType": "address",
          "name": "",
          "type": "address"
        }
      ],
      "stateMutability": "view",
      "type": "function"
    }
  ],
  "bytecode": "0x60806040523480156200001157600080fd5b5060405162003bda38038062003bda83398181016040528101906200003791906200034a565b816000806101000a81548173ffffffffffffffffffffffffffffffffffffffff021916908373ffffffffffffffffffffffffffffffffffffffff16021790555080600190805190602001906200008f92919062000098565b50505062000414565b828054620000a690620003df565b90600052602060002090601f016020900481019282620000ca576000855562000116565b82601f10620000e557805160ff191683800117855562000116565b8280016001018555821562000116579182015b8281111562000115578251825591602001919060010190620000f8565b5b50905062000125919062000129565b5090565b5b80821115620001445760008160009055506001016200012a565b5090565b6000604051905090565b600080fd5b600080fd5b600073ffffffffffffffffffffffffffffffffffffffff82169050919050565b600062000189826200015c565b9050919050565b6200019b816200017c565b8114620001a757600080fd5b50565b600081519050620001bb8162000190565b92915050565b600080fd5b600080fd5b6000601f19601f8301169050919050565b7f4e487b7100000000000000000000000000000000000000000000000000000000600052604160045260246000fd5b6200021682620001cb565b810181811067ffffffffffffffff82111715620002385762000237620001dc565b5b80604052505050565b60006200024d62000148565b90506200025b82826200020b565b919050565b600067ffffffffffffffff8211156200027e576200027d620001dc565b5b6200028982620001cb565b9050602081019050919050565b60005b83811015620002b657808201518184015260208101905062000299565b83811115620002c6576000848401525b50505050565b6000620002e3620002dd8462000260565b62000241565b905082815260208101848484011115620003025762000301620001c6565b5b6200030f84828562000296565b509392505050565b600082601f8301126200032f576200032e620001c1565b5b815162000341848260208601620002cc565b91505092915050565b6000806040838503121562000364576200036362000152565b5b60006200037485828601620001aa565b925050602083015167ffffffffffffffff81111562000398576200039762000157565b5b620003a68582860162000317565b9150509250929050565b7f4e487b7100000000000000000000000000000000000000000000000000000000600052602260045260246000fd5b60006002820490506001821680620003f857607f821691505b6020821081036200040e576200040d620003b0565b5b50919050565b6137b680620004246000396000f3fe608060405234801561001057600080fd5b50600436106100cf5760003560e01c8063a19fc1141161008c578063dcc6012811610066578063dcc601281461023b578063e2bbb15814610259578063eb4db2a214610289578063f2fde38b146102b9576100cf565b8063a19fc114146101be578063a5870107146101ef578063be116c3b1461021f576100cf565b806306fdde03146100d4578063453c9772146100f2578063620d1fee14610122578063629e4ed0146101525780638da5cb5b1461017057806397be91251461018e575b600080fd5b6100dc6102d5565b6040516100e99190612527565b60405180910390f35b61010c6004803603810190610107919061264c565b610367565b6040516101199190612752565b60405180910390f35b61013c6004803603810190610137919061276d565b610571565b60405161014991906127db565b60405180910390f35b61015a610a55565b60405161016791906129ec565b60405180910390f35b610178610c9a565b6040516101859190612a1d565b60405180910390f35b6101a860048036038101906101a39190612a38565b610cc3565b6040516101b59190612752565b60405180910390f35b6101d860048036038101906101d39190612b07565b610e3b565b6040516101e6929190612b50565b60405180910390f35b61020960048036038101906102049190612b79565b610f64565b60405161021691906127db565b60405180910390f35b61023960048036038101906102349190612b07565b6115f8565b005b6102436116bb565b6040516102509190612dd4565b60405180910390f35b610273600480360381019061026e9190612b79565b6119d4565b60405161028091906127db565b60405180910390f35b6102a3600480360381019061029e9190612e22565b611dc0565b6040516102b091906127db565b60405180910390f35b6102d360048036038101906102ce9190612b07565b611f0f565b005b6060600180546102e490612ea4565b80601f016020809104026020016040519081016040528092919081815260200182805461031090612ea4565b801561035d5780601f106103325761010080835404028352916020019161035d565b820191906000526020600020905b81548152906001019060200180831161034057829003601f168201915b5050505050905090565b60008060008061037d61037861201f565b612027565b92509250925060008054906101000a900473ffffffffffffffffffffffffffffffffffffffff1673ffffffffffffffffffffffffffffffffffffffff168373ffffffffffffffffffffffffffffffffffffffff1614610411576040517f08c379a000000000000000000000000000000000000000000000000000000000815260040161040890612f21565b60405180910390fd5b6002600081548092919061042490612f70565b91905055935060006003600086815260200190815260200160002090508e8e8260000191906104549291906122f9565b508c8c8260010191906104689291906122f9565b508a8160020181905550898160030181905550888160050160006101000a81548173ffffffffffffffffffffffffffffffffffffffff021916908373ffffffffffffffffffffffffffffffffffffffff160217905550878160060160006101000a81548173ffffffffffffffffffffffffffffffffffffffff021916908373ffffffffffffffffffffffffffffffffffffffff1602179055508681600701819055508581600c0181905550600181600e0160006101000a81548160ff0219169083151502179055506002547f1ac2092e16e28eef29d1832f3dc69da1b21284a1f3159d3b26cb238b22fe4f8a60405160405180910390a2505050509a9950505050505050505050565b60008060008061058761058261201f565b612027565b92509250925060008054906101000a900473ffffffffffffffffffffffffffffffffffffffff1673ffffffffffffffffffffffffffffffffffffffff168373ffffffffffffffffffffffffffffffffffffffff161461061b576040517f08c379a000000000000000000000000000000000000000000000000000000000815260040161061290613004565b60405180910390fd5b8061065b576040517f08c379a000000000000000000000000000000000000000000000000000000000815260040161065290613070565b60405180910390fd5b60036000888152602001908152602001600020600e0160009054906101000a900460ff166106be576040517f08c379a00000000000000000000000000000000000000000000000000000000081526004016106b5906130dc565b60405180910390fd5b600060036000898152602001908152602001600020600a01546106e18988612209565b6106eb91906130fc565b90506000600360008a8152602001908152602001600020600a0154600360008b815260200190815260200160002060090154600360008c81526020019081526020016000206008015461073e91906130fc565b61074891906130fc565b90508188111561078d576040517f08c379a00000000000000000000000000000000000000000000000000000000081526004016107849061317c565b60405180910390fd5b808811156107d0576040517f08c379a00000000000000000000000000000000000000000000000000000000081526004016107c7906131e8565b60405180910390fd5b6000600360008b815260200190815260200160002060060160009054906101000a900473ffffffffffffffffffffffffffffffffffffffff1673ffffffffffffffffffffffffffffffffffffffff166370a08231306040518263ffffffff1660e01b81526004016108419190612a1d565b602060405180830381865afa15801561085e573d6000803e3d6000fd5b505050506040513d601f19601f82011682018060405250810190610882919061321d565b9050808911156108c7576040517f08c379a00000000000000000000000000000000000000000000000000000000081526004016108be906131e8565b60405180910390fd5b6000600360008c815260200190815260200160002060060160009054906101000a900473ffffffffffffffffffffffffffffffffffffffff1673ffffffffffffffffffffffffffffffffffffffff166323b872dd3061092461201f565b8d6040518463ffffffff1660e01b81526004016109439392919061324a565b6020604051808303816000875af1158015610962573d6000803e3d6000fd5b505050506040513d601f19601f820116820180604052508101906109869190613296565b90508015610a0c578961099761201f565b73ffffffffffffffffffffffffffffffffffffffff168c7f9b8e4a594394ff6269b0bb73fc96e495ea5cf99d06df38645888808d48fdfc0560405160405180910390a489600360008d8152602001908152602001600020600a016000828254610a0091906132c3565b92505081905550610a47565b6040517f08c379a0000000000000000000000000000000000000000000000000000000008152600401610a3e90613365565b60405180910390fd5b505050505050509392505050565b6060600060045467ffffffffffffffff811115610a7557610a74613385565b5b604051908082528060200260200182016040528015610aae57816020015b610a9b61237f565b815260200190600190039081610a935790505b50905060005b6004548160ff161015610c9257600560008260ff1681526020019081526020016000206040518061012001604052908160008201548152602001600182018054610afd90612ea4565b80601f0160208091040260200160405190810160405280929190818152602001828054610b2990612ea4565b8015610b765780601f10610b4b57610100808354040283529160200191610b76565b820191906000526020600020905b815481529060010190602001808311610b5957829003601f168201915b50505050508152602001600282018054610b8f90612ea4565b80601f0160208091040260200160405190810160405280929190818152602001828054610bbb90612ea4565b8015610c085780601f10610bdd57610100808354040283529160200191610c08565b820191906000526020600020905b815481529060010190602001808311610beb57829003601f168201915b5050505050815260200160038201548152602001600482015481526020016005820154815260200160068201548152602001600782015481526020016008820160009054906101000a900460ff161515151581525050828260ff1681518110610c7457610c736133b4565b5b60200260200101819052508080610c8a906133e3565b915050610ab4565b508091505090565b60008060009054906101000a900473ffffffffffffffffffffffffffffffffffffffff16905090565b600080600080610cd9610cd461201f565b612027565b92509250925060008054906101000a900473ffffffffffffffffffffffffffffffffffffffff1673ffffffffffffffffffffffffffffffffffffffff168373ffffffffffffffffffffffffffffffffffffffff1614610d6d576040517f08c379a0000000000000000000000000000000000000000000000000000000008152600401610d649061347e565b60405180910390fd5b60046000815480929190610d8090612f70565b91905055935060006005600086815260200190815260200160002090508b8b826001019190610db09291906122f9565b508989826002019190610dc49291906122f9565b5087816003018190555086816004018190555085816006018190555060018160080160006101000a81548160ff0219169083151502179055508c857f3a2622619a6ba11c3f6805f19879501605e35983595b15a0a32c8982c5c4567760405160405180910390a35050505098975050505050505050565b6000806000806000610e4c86612027565b92509250925060008054906101000a900473ffffffffffffffffffffffffffffffffffffffff1673ffffffffffffffffffffffffffffffffffffffff168373ffffffffffffffffffffffffffffffffffffffff1603610eb45760018394509450505050610f5f565b60005b6002548160ff161015610f5357600360008260ff16815260200190815260200160002060050160009054906101000a900473ffffffffffffffffffffffffffffffffffffffff1673ffffffffffffffffffffffffffffffffffffffff168473ffffffffffffffffffffffffffffffffffffffff1603610f40576002849550955050505050610f5f565b8080610f4b906133e3565b915050610eb7565b50600083945094505050505b915091565b600080600080610f7a610f7561201f565b612027565b92509250925080610fc0576040517f08c379a0000000000000000000000000000000000000000000000000000000008152600401610fb790613070565b60405180910390fd5b60036000878152602001908152602001600020600e0160009054906101000a900460ff16611023576040517f08c379a000000000000000000000000000000000000000000000000000000000815260040161101a906130dc565b60405180910390fd5b600060036000888152602001908152602001600020604051806101e001604052908160008201805461105490612ea4565b80601f016020809104026020016040519081016040528092919081815260200182805461108090612ea4565b80156110cd5780601f106110a2576101008083540402835291602001916110cd565b820191906000526020600020905b8154815290600101906020018083116110b057829003601f168201915b505050505081526020016001820180546110e690612ea4565b80601f016020809104026020016040519081016040528092919081815260200182805461111290612ea4565b801561115f5780601f106111345761010080835404028352916020019161115f565b820191906000526020600020905b81548152906001019060200180831161114257829003601f168201915b505050505081526020016002820154815260200160038201548152602001600482015481526020016005820160009054906101000a900473ffffffffffffffffffffffffffffffffffffffff1673ffffffffffffffffffffffffffffffffffffffff1673ffffffffffffffffffffffffffffffffffffffff1681526020016006820160009054906101000a900473ffffffffffffffffffffffffffffffffffffffff1673ffffffffffffffffffffffffffffffffffffffff1673ffffffffffffffffffffffffffffffffffffffff168152602001600782015481526020016008820154815260200160098201548152602001600a8201548152602001600b8201548152602001600c8201548152602001600d8201548152602001600e820160009054906101000a900460ff16151515158152505090508060a0015173ffffffffffffffffffffffffffffffffffffffff168473ffffffffffffffffffffffffffffffffffffffff1614611307576040517f08c379a00000000000000000000000000000000000000000000000000000000081526004016112fe906134ea565b60405180910390fd5b600081610140015182610120015183610100015161132591906130fc565b61132f91906130fc565b905080871115611374576040517f08c379a000000000000000000000000000000000000000000000000000000000815260040161136b906131e8565b60405180910390fd5b6000600360008a815260200190815260200160002060060160009054906101000a900473ffffffffffffffffffffffffffffffffffffffff1673ffffffffffffffffffffffffffffffffffffffff166370a08231306040518263ffffffff1660e01b81526004016113e59190612a1d565b602060405180830381865afa158015611402573d6000803e3d6000fd5b505050506040513d601f19601f82011682018060405250810190611426919061321d565b90508088111561146b576040517f08c379a0000000000000000000000000000000000000000000000000000000008152600401611462906131e8565b60405180910390fd5b6000600360008b815260200190815260200160002060060160009054906101000a900473ffffffffffffffffffffffffffffffffffffffff1673ffffffffffffffffffffffffffffffffffffffff166323b872dd306114c861201f565b8c6040518463ffffffff1660e01b81526004016114e79392919061324a565b6020604051808303816000875af1158015611506573d6000803e3d6000fd5b505050506040513d601f19601f8201168201806040525081019061152a9190613296565b905080156115b0578861153b61201f565b73ffffffffffffffffffffffffffffffffffffffff168b7f6068adcb40c8fefb47672ea89908634044c63854b255e83471c9b16f0b2ad72f60405160405180910390a488600360008c815260200190815260200160002060090160008282546115a491906132c3565b925050819055506115eb565b6040517f08c379a00000000000000000000000000000000000000000000000000000000081526004016115e290613365565b60405180910390fd5b5050505050505092915050565b60008061160b61160661201f565b610e3b565b9150915060008260ff1603611655576040517f08c379a000000000000000000000000000000000000000000000000000000000815260040161164c90613556565b60405180910390fd5b6000600660008573ffffffffffffffffffffffffffffffffffffffff1673ffffffffffffffffffffffffffffffffffffffff168152602001908152602001600020905060008160000160166101000a81548160ff02191690831515021790555050505050565b6060600060025467ffffffffffffffff8111156116db576116da613385565b5b60405190808252806020026020018201604052801561171457816020015b6117016123cd565b8152602001906001900390816116f95790505b50905060005b6002548160ff1610156119cc57600360008260ff168152602001908152602001600020604051806101e001604052908160008201805461175990612ea4565b80601f016020809104026020016040519081016040528092919081815260200182805461178590612ea4565b80156117d25780601f106117a7576101008083540402835291602001916117d2565b820191906000526020600020905b8154815290600101906020018083116117b557829003601f168201915b505050505081526020016001820180546117eb90612ea4565b80601f016020809104026020016040519081016040528092919081815260200182805461181790612ea4565b80156118645780601f1061183957610100808354040283529160200191611864565b820191906000526020600020905b81548152906001019060200180831161184757829003601f168201915b505050505081526020016002820154815260200160038201548152602001600482015481526020016005820160009054906101000a900473ffffffffffffffffffffffffffffffffffffffff1673ffffffffffffffffffffffffffffffffffffffff1673ffffffffffffffffffffffffffffffffffffffff1681526020016006820160009054906101000a900473ffffffffffffffffffffffffffffffffffffffff1673ffffffffffffffffffffffffffffffffffffffff1673ffffffffffffffffffffffffffffffffffffffff168152602001600782015481526020016008820154815260200160098201548152602001600a8201548152602001600b8201548152602001600c8201548152602001600d8201548152602001600e820160009054906101000a900460ff161515151581525050828260ff16815181106119ae576119ad6133b4565b5b602002602001018190525080806119c4906133e3565b91505061171a565b508091505090565b6000806000806119ea6119e561201f565b612027565b92509250925060036000878152602001908152602001600020600e0160009054906101000a900460ff16611a53576040517f08c379a0000000000000000000000000000000000000000000000000000000008152600401611a4a906130dc565b60405180910390fd5b6003600087815260200190815260200160002060050160009054906101000a900473ffffffffffffffffffffffffffffffffffffffff1673ffffffffffffffffffffffffffffffffffffffff168373ffffffffffffffffffffffffffffffffffffffff1614611af7576040517f08c379a0000000000000000000000000000000000000000000000000000000008152600401611aee906135c2565b60405180910390fd5b81611b37576040517f08c379a0000000000000000000000000000000000000000000000000000000008152600401611b2e9061362e565b60405180910390fd5b60006003600088815260200190815260200160002060060160009054906101000a900473ffffffffffffffffffffffffffffffffffffffff1673ffffffffffffffffffffffffffffffffffffffff166370a08231611b9361201f565b6040518263ffffffff1660e01b8152600401611baf9190612a1d565b602060405180830381865afa158015611bcc573d6000803e3d6000fd5b505050506040513d601f19601f82011682018060405250810190611bf0919061321d565b905080861115611c35576040517f08c379a0000000000000000000000000000000000000000000000000000000008152600401611c2c906131e8565b60405180910390fd5b60006003600089815260200190815260200160002060060160009054906101000a900473ffffffffffffffffffffffffffffffffffffffff1673ffffffffffffffffffffffffffffffffffffffff166323b872dd611c9161201f565b308a6040518463ffffffff1660e01b8152600401611cb19392919061324a565b6020604051808303816000875af1158015611cd0573d6000803e3d6000fd5b505050506040513d601f19601f82011682018060405250810190611cf49190613296565b90508015611d7a5786611d0561201f565b73ffffffffffffffffffffffffffffffffffffffff16897feaa18152488ce5959073c9c79c88ca90b3d96c00de1f118cfaad664c3dab06b960405160405180910390a486600360008a81526020019081526020016000206008016000828254611d6e91906132c3565b92505081905550611db5565b6040517f08c379a0000000000000000000000000000000000000000000000000000000008152600401611dac90613365565b60405180910390fd5b505050505092915050565b6000806000611dd5611dd061201f565b610e3b565b9150915060008260ff1603611e1f576040517f08c379a0000000000000000000000000000000000000000000000000000000008152600401611e1690613556565b60405180910390fd5b6000600660008873ffffffffffffffffffffffffffffffffffffffff1673ffffffffffffffffffffffffffffffffffffffff1681526020019081526020016000209050611e6a61201f565b8160000160006101000a81548173ffffffffffffffffffffffffffffffffffffffff021916908373ffffffffffffffffffffffffffffffffffffffff160217905550858160000160146101000a81548160ff021916908315150217905550848160000160156101000a81548160ff02191690831515021790555060018160000160166101000a81548160ff021916908315150217905550600193505050509392505050565b611f1761201f565b73ffffffffffffffffffffffffffffffffffffffff1660008054906101000a900473ffffffffffffffffffffffffffffffffffffffff1673ffffffffffffffffffffffffffffffffffffffff1614611fa4576040517f08c379a0000000000000000000000000000000000000000000000000000000008152600401611f9b9061369a565b60405180910390fd5b600073ffffffffffffffffffffffffffffffffffffffff168173ffffffffffffffffffffffffffffffffffffffff1603612013576040517f08c379a000000000000000000000000000000000000000000000000000000000815260040161200a90613706565b60405180910390fd5b61201c81612235565b50565b600033905090565b600080600080600190506000600190506000869050600660008273ffffffffffffffffffffffffffffffffffffffff1673ffffffffffffffffffffffffffffffffffffffff16815260200190815260200160002060000160169054906101000a900460ff16156121f657600660008273ffffffffffffffffffffffffffffffffffffffff1673ffffffffffffffffffffffffffffffffffffffff16815260200190815260200160002060000160149054906101000a900460ff169250600660008273ffffffffffffffffffffffffffffffffffffffff1673ffffffffffffffffffffffffffffffffffffffff16815260200190815260200160002060000160159054906101000a900460ff1691505b600660008273ffffffffffffffffffffffffffffffffffffffff1673ffffffffffffffffffffffffffffffffffffffff16815260200190815260200160002060000160169054906101000a900460ff16156121f557600660008273ffffffffffffffffffffffffffffffffffffffff1673ffffffffffffffffffffffffffffffffffffffff16815260200190815260200160002060000160009054906101000a900473ffffffffffffffffffffffffffffffffffffffff169050612136565b5b8083839550955095505050509193909250565b600060036000848152602001908152602001600020600701548261222d9190613726565b905092915050565b60008060009054906101000a900473ffffffffffffffffffffffffffffffffffffffff169050816000806101000a81548173ffffffffffffffffffffffffffffffffffffffff021916908373ffffffffffffffffffffffffffffffffffffffff1602179055508173ffffffffffffffffffffffffffffffffffffffff168173ffffffffffffffffffffffffffffffffffffffff167f8be0079c531659141344cd1fd0a4f28419497f9722a3daafe3b4186f6b6457e060405160405180910390a35050565b82805461230590612ea4565b90600052602060002090601f016020900481019282612327576000855561236e565b82601f1061234057803560ff191683800117855561236e565b8280016001018555821561236e579182015b8281111561236d578235825591602001919060010190612352565b5b50905061237b9190612471565b5090565b60405180610120016040528060008152602001606081526020016060815260200160008152602001600081526020016000815260200160008152602001600081526020016000151581525090565b604051806101e001604052806060815260200160608152602001600081526020016000815260200160008152602001600073ffffffffffffffffffffffffffffffffffffffff168152602001600073ffffffffffffffffffffffffffffffffffffffff168152602001600081526020016000815260200160008152602001600081526020016000815260200160008152602001600081526020016000151581525090565b5b8082111561248a576000816000905550600101612472565b5090565b600081519050919050565b600082825260208201905092915050565b60005b838110156124c85780820151818401526020810190506124ad565b838111156124d7576000848401525b50505050565b6000601f19601f8301169050919050565b60006124f98261248e565b6125038185612499565b93506125138185602086016124aa565b61251c816124dd565b840191505092915050565b6000602082019050818103600083015261254181846124ee565b905092915050565b600080fd5b600080fd5b600080fd5b600080fd5b600080fd5b60008083601f84011261257857612577612553565b5b8235905067ffffffffffffffff81111561259557612594612558565b5b6020830191508360018202830111156125b1576125b061255d565b5b9250929050565b6000819050919050565b6125cb816125b8565b81146125d657600080fd5b50565b6000813590506125e8816125c2565b92915050565b600073ffffffffffffffffffffffffffffffffffffffff82169050919050565b6000612619826125ee565b9050919050565b6126298161260e565b811461263457600080fd5b50565b60008135905061264681612620565b92915050565b6000806000806000806000806000806101008b8d0312156126705761266f612549565b5b60008b013567ffffffffffffffff81111561268e5761268d61254e565b5b61269a8d828e01612562565b9a509a505060208b013567ffffffffffffffff8111156126bd576126bc61254e565b5b6126c98d828e01612562565b985098505060406126dc8d828e016125d9565b96505060606126ed8d828e016125d9565b95505060806126fe8d828e01612637565b94505060a061270f8d828e01612637565b93505060c06127208d828e016125d9565b92505060e06127318d828e016125d9565b9150509295989b9194979a5092959850565b61274c816125b8565b82525050565b60006020820190506127676000830184612743565b92915050565b60008060006060848603121561278657612785612549565b5b6000612794868287016125d9565b93505060206127a5868287016125d9565b92505060406127b6868287016125d9565b9150509250925092565b60008115159050919050565b6127d5816127c0565b82525050565b60006020820190506127f060008301846127cc565b92915050565b600081519050919050565b600082825260208201905092915050565b6000819050602082019050919050565b61282b816125b8565b82525050565b600082825260208201905092915050565b600061284d8261248e565b6128578185612831565b93506128678185602086016124aa565b612870816124dd565b840191505092915050565b612884816127c0565b82525050565b6000610120830160008301516128a36000860182612822565b50602083015184820360208601526128bb8282612842565b915050604083015184820360408601526128d58282612842565b91505060608301516128ea6060860182612822565b5060808301516128fd6080860182612822565b5060a083015161291060a0860182612822565b5060c083015161292360c0860182612822565b5060e083015161293660e0860182612822565b5061010083015161294b61010086018261287b565b508091505092915050565b6000612962838361288a565b905092915050565b6000602082019050919050565b6000612982826127f6565b61298c8185612801565b93508360208202850161299e85612812565b8060005b858110156129da57848403895281516129bb8582612956565b94506129c68361296a565b925060208a019950506001810190506129a2565b50829750879550505050505092915050565b60006020820190508181036000830152612a068184612977565b905092915050565b612a178161260e565b82525050565b6000602082019050612a326000830184612a0e565b92915050565b60008060008060008060008060c0898b031215612a5857612a57612549565b5b6000612a668b828c016125d9565b985050602089013567ffffffffffffffff811115612a8757612a8661254e565b5b612a938b828c01612562565b9750975050604089013567ffffffffffffffff811115612ab657612ab561254e565b5b612ac28b828c01612562565b95509550506060612ad58b828c016125d9565b9350506080612ae68b828c016125d9565b92505060a0612af78b828c016125d9565b9150509295985092959890939650565b600060208284031215612b1d57612b1c612549565b5b6000612b2b84828501612637565b91505092915050565b600060ff82169050919050565b612b4a81612b34565b82525050565b6000604082019050612b656000830185612b41565b612b726020830184612a0e565b9392505050565b60008060408385031215612b9057612b8f612549565b5b6000612b9e858286016125d9565b9250506020612baf858286016125d9565b9150509250929050565b600081519050919050565b600082825260208201905092915050565b6000819050602082019050919050565b612bee8161260e565b82525050565b60006101e0830160008301518482036000860152612c128282612842565b91505060208301518482036020860152612c2c8282612842565b9150506040830151612c416040860182612822565b506060830151612c546060860182612822565b506080830151612c676080860182612822565b5060a0830151612c7a60a0860182612be5565b5060c0830151612c8d60c0860182612be5565b5060e0830151612ca060e0860182612822565b50610100830151612cb5610100860182612822565b50610120830151612cca610120860182612822565b50610140830151612cdf610140860182612822565b50610160830151612cf4610160860182612822565b50610180830151612d09610180860182612822565b506101a0830151612d1e6101a0860182612822565b506101c0830151612d336101c086018261287b565b508091505092915050565b6000612d4a8383612bf4565b905092915050565b6000602082019050919050565b6000612d6a82612bb9565b612d748185612bc4565b935083602082028501612d8685612bd5565b8060005b85811015612dc25784840389528151612da38582612d3e565b9450612dae83612d52565b925060208a01995050600181019050612d8a565b50829750879550505050505092915050565b60006020820190508181036000830152612dee8184612d5f565b905092915050565b612dff816127c0565b8114612e0a57600080fd5b50565b600081359050612e1c81612df6565b92915050565b600080600060608486031215612e3b57612e3a612549565b5b6000612e4986828701612637565b9350506020612e5a86828701612e0d565b9250506040612e6b86828701612e0d565b9150509250925092565b7f4e487b7100000000000000000000000000000000000000000000000000000000600052602260045260246000fd5b60006002820490506001821680612ebc57607f821691505b602082108103612ecf57612ece612e75565b5b50919050565b7f4f6e6c79206f776e65722063616e2063726561746520612070726f6a65637400600082015250565b6000612f0b601f83612499565b9150612f1682612ed5565b602082019050919050565b60006020820190508181036000830152612f3a81612efe565b9050919050565b7f4e487b7100000000000000000000000000000000000000000000000000000000600052601160045260246000fd5b6000612f7b826125b8565b91507fffffffffffffffffffffffffffffffffffffffffffffffffffffffffffffffff8203612fad57612fac612f41565b5b600182019050919050565b7f4f6e6c79206f776e65722063616e207769746864726177000000000000000000600082015250565b6000612fee601783612499565b9150612ff982612fb8565b602082019050919050565b6000602082019050818103600083015261301d81612fe1565b9050919050565b7f57697468647261772070726f6869626974656400000000000000000000000000600082015250565b600061305a601383612499565b915061306582613024565b602082019050919050565b600060208201905081810360008301526130898161304d565b9050919050565b7f50726f6a65637420646f6573206e6f7420657869737400000000000000000000600082015250565b60006130c6601683612499565b91506130d182613090565b602082019050919050565b600060208201905081810360008301526130f5816130b9565b9050919050565b6000613107826125b8565b9150613112836125b8565b92508282101561312557613124612f41565b5b828203905092915050565b7f4e6f7420616c6c6f776564000000000000000000000000000000000000000000600082015250565b6000613166600b83612499565b915061317182613130565b602082019050919050565b6000602082019050818103600083015261319581613159565b9050919050565b7f4e6f7420656e6f7567682066756e647300000000000000000000000000000000600082015250565b60006131d2601083612499565b91506131dd8261319c565b602082019050919050565b60006020820190508181036000830152613201816131c5565b9050919050565b600081519050613217816125c2565b92915050565b60006020828403121561323357613232612549565b5b600061324184828501613208565b91505092915050565b600060608201905061325f6000830186612a0e565b61326c6020830185612a0e565b6132796040830184612743565b949350505050565b60008151905061329081612df6565b92915050565b6000602082840312156132ac576132ab612549565b5b60006132ba84828501613281565b91505092915050565b60006132ce826125b8565b91506132d9836125b8565b9250827fffffffffffffffffffffffffffffffffffffffffffffffffffffffffffffffff0382111561330e5761330d612f41565b5b828201905092915050565b7f4572726f72207472616e7366657272696e672066756e64730000000000000000600082015250565b600061334f601883612499565b915061335a82613319565b602082019050919050565b6000602082019050818103600083015261337e81613342565b9050919050565b7f4e487b7100000000000000000000000000000000000000000000000000000000600052604160045260246000fd5b7f4e487b7100000000000000000000000000000000000000000000000000000000600052603260045260246000fd5b60006133ee82612b34565b915060ff820361340157613400612f41565b5b600182019050919050565b7f4f6e6c79206f776e65722063616e206372656174652061206d696c6573746f6e60008201527f6500000000000000000000000000000000000000000000000000000000000000602082015250565b6000613468602183612499565b91506134738261340c565b604082019050919050565b600060208201905081810360008301526134978161345b565b9050919050565b7f4f6e6c792070726f6a65637420636c69656e742063616e207769746864726177600082015250565b60006134d4602083612499565b91506134df8261349e565b602082019050919050565b60006020820190508181036000830152613503816134c7565b9050919050565b7f4e6f7420617574686f72697a6564000000000000000000000000000000000000600082015250565b6000613540600e83612499565b915061354b8261350a565b602082019050919050565b6000602082019050818103600083015261356f81613533565b9050919050565b7f4f6e6c792070726f6a65637420636c69656e742063616e206465706f73697400600082015250565b60006135ac601f83612499565b91506135b782613576565b602082019050919050565b600060208201905081810360008301526135db8161359f565b9050919050565b7f4465706f7369742070726f686962697465640000000000000000000000000000600082015250565b6000613618601283612499565b9150613623826135e2565b602082019050919050565b600060208201905081810360008301526136478161360b565b9050919050565b7f43616c6c6572206973206e6f7420746865206f776e6572000000000000000000600082015250565b6000613684601783612499565b915061368f8261364e565b602082019050919050565b600060208201905081810360008301526136b381613677565b9050919050565b7f4e6577206f776e657220697320746865207a65726f2061646472657373000000600082015250565b60006136f0601d83612499565b91506136fb826136ba565b602082019050919050565b6000602082019050818103600083015261371f816136e3565b9050919050565b6000613731826125b8565b915061373c836125b8565b9250817fffffffffffffffffffffffffffffffffffffffffffffffffffffffffffffffff048311821515161561377557613774612f41565b5b82820290509291505056fea26469706673582212203982300f318c17183fb9f21efbd21357a52804daf704f5b2f46d8651ec5aacab64736f6c634300080d0033",
  "immutableReferences": {},
  "source": "pragma solidity ^0.8.0;\r\nimport \"./Context.sol\";\r\nimport \"./ERC20.sol\";\r\n\r\ncontract RPay is Context {\r\n\r\n  struct ProjectStruct {\r\n    string name;\r\n    string meta;\r\n    uint startDate;\r\n    uint dueDate;\r\n    uint endDate;\r\n    address client;\r\n    address token;\r\n    uint value;\r\n    uint deposited;\r\n    uint withdrawnClient;\r\n    uint withdrawnOwner;\r\n    uint discount;\r\n    uint frequency;\r\n    uint clientApproved;\r\n    bool isEntity;\r\n  }\r\n  \r\n  struct MilestoneStruct {\r\n    uint projectID;\r\n    string name;\r\n    string meta;\r\n    uint startDate;\r\n    uint dueDate;\r\n    uint endDate;\r\n    uint value;\r\n    uint clientApproved;\r\n    bool isEntity;\r\n  }\r\n  \r\n  struct ProxyStruct {\r\n    address toAddress;\r\n    bool canDeposit;\r\n    bool canWithdraw;\r\n    bool isActive;\r\n  }\r\n  \r\n  address private _owner;\r\n  string private _name;\r\n  uint numProjects;\r\n  mapping (uint => ProjectStruct) projects;\r\n  uint numMilestones;\r\n  mapping (uint => MilestoneStruct) milestones;\r\n  mapping (address => ProxyStruct) proxies;\r\n  \r\n  event OwnershipTransferred(address indexed previousOwner, address indexed newOwner);  \r\n  event ProjectCreated(uint indexed id);\r\n  event MilestoneCreated(uint indexed id, uint indexed projectID);\r\n  event Deposit(uint indexed projectID, address indexed userAddress, uint indexed value);\r\n  event WithdrawClient(uint indexed projectID, address indexed userAddress, uint indexed value);\r\n  event WithdrawOwner(uint indexed projectID, address indexed userAddress, uint indexed value);\r\n  event AddProxy(address indexed fromAddress, address indexed toAddress);\r\n  event RemoveProxy(address indexed fromAddress, address indexed toAddress);\r\n  \r\n  constructor(address owner, string memory name) {\r\n    _owner = owner;\r\n    _name = name;\r\n  }\r\n  \r\n  function name() public view returns (string memory) {\r\n    return _name;\r\n  }\r\n  \r\n  function owner() public view returns (address) {\r\n    return _owner;\r\n  }\r\n  \r\n  function calculateTotalWithdrawable(uint projectID, uint num) private returns (uint) {\r\n    //check that num is reasonable\r\n    return num * projects[projectID].value;\r\n  }\r\n  \r\n  function createProject(string calldata name, string calldata meta, uint startDate, uint dueDate, address client, address token, uint value, uint frequency) public returns (uint projectID) {\r\n    (address toAddress, bool canDeposit, bool canWithdraw) = getProxy(_msgSender());\r\n    require(toAddress == _owner, \"Only owner can create a project\");\r\n    //only owner or proxy of owner\r\n    projectID = numProjects++;\r\n    ProjectStruct storage p = projects[projectID];\r\n    p.name = name;\r\n    p.meta = meta;\r\n    p.startDate = startDate;\r\n    p.dueDate = dueDate;\r\n    p.client = client;\r\n    p.token = token;\r\n    p.value = value;\r\n    p.frequency = frequency;\r\n    p.isEntity = true;\r\n    emit ProjectCreated(numProjects);\r\n  }\r\n  \r\n  function createMilestone(uint projectID, string calldata name, string calldata meta, uint startDate, uint dueDate, uint value) public returns (uint milestoneID) {\r\n    (address toAddress, bool canDeposit, bool canWithdraw) = getProxy(_msgSender());\r\n    require(toAddress == _owner, \"Only owner can create a milestone\");\r\n    milestoneID = numMilestones++;\r\n    MilestoneStruct storage m = milestones[milestoneID];\r\n    m.name = name;\r\n    m.meta = meta;\r\n    m.startDate = startDate;\r\n    m.dueDate = dueDate;\r\n    m.value = value;\r\n    m.isEntity = true;\r\n    emit MilestoneCreated(milestoneID, projectID);\r\n  }\r\n  \r\n  function deposit(uint projectID, uint value) public returns (bool) {\r\n    //only client or proxy of a client that can deposit\r\n    (address toAddress, bool canDeposit, bool canWithdraw) = getProxy(_msgSender());\r\n    require(projects[projectID].isEntity, \"Project does not exist\");\r\n    require(toAddress==projects[projectID].client, \"Only project client can deposit\");\r\n    require(canDeposit, \"Deposit prohibited\");\r\n    //TODO transfer funds\r\n    //does user have enough balance?\r\n    uint userBalance = ERC20(projects[projectID].token).balanceOf(_msgSender());\r\n    require(value <= userBalance, \"Not enough funds\");\r\n    bool success = ERC20(projects[projectID].token).transferFrom(_msgSender(), address(this), value);\r\n    if(success) {\r\n      emit Deposit(projectID, _msgSender(), value);\r\n      projects[projectID].deposited += value;\r\n    }\r\n    else {\r\n      revert(\"Error transferring funds\");\r\n    }\r\n  }\r\n  \r\n  function withdrawOwner(uint projectID, uint value, uint num) public returns (bool) {\r\n    //only owner or proxy of a owner that can withdraw\r\n    (address toAddress, bool canDeposit, bool canWithdraw) = getProxy(_msgSender());\r\n    require(toAddress == _owner, \"Only owner can withdraw\");\r\n    require(canWithdraw, \"Withdraw prohibited\");\r\n    require(projects[projectID].isEntity, \"Project does not exist\");\r\n    uint totalWithdrawable = calculateTotalWithdrawable(projectID, num) - projects[projectID].withdrawnOwner;\r\n    uint totalAvailable = projects[projectID].deposited - projects[projectID].withdrawnClient - projects[projectID].withdrawnOwner;\r\n    require(value <= totalWithdrawable, \"Not allowed\");\r\n    require(value <= totalAvailable, \"Not enough funds\");\r\n    uint contractBalance = ERC20(projects[projectID].token).balanceOf(address(this));\r\n    require(value <= contractBalance, \"Not enough funds\");\r\n    bool success = ERC20(projects[projectID].token).transferFrom(address(this), _msgSender(), value);\r\n    if(success) {\r\n      emit WithdrawOwner(projectID, _msgSender(), value);\r\n      projects[projectID].withdrawnOwner += value;\r\n    }\r\n    else {\r\n      revert(\"Error transferring funds\");\r\n    }\r\n  }\r\n  \r\n  function withdrawClient(uint projectID, uint value) public returns (bool) {\r\n    //only client or proxy of a client that can withdraw\r\n    (address toAddress, bool canDeposit, bool canWithdraw) = getProxy(_msgSender());\r\n    require(canWithdraw, \"Withdraw prohibited\");\r\n    require(projects[projectID].isEntity, \"Project does not exist\");\r\n    ProjectStruct memory project = projects[projectID];\r\n    require(toAddress==project.client, \"Only project client can withdraw\");\r\n    uint totalWithdrawable = project.deposited - project.withdrawnClient - project.withdrawnOwner;\r\n    require(value <= totalWithdrawable, \"Not enough funds\");\r\n    //TODO do transfer\r\n    uint contractBalance = ERC20(projects[projectID].token).balanceOf(address(this));\r\n    require(value <= contractBalance, \"Not enough funds\");\r\n    bool success = ERC20(projects[projectID].token).transferFrom(address(this), _msgSender(), value);\r\n    if(success) {\r\n      emit WithdrawClient(projectID, _msgSender(), value);\r\n      projects[projectID].withdrawnClient += value;\r\n    }\r\n    else {\r\n      revert(\"Error transferring funds\");\r\n    }\r\n  }\r\n  \r\n  function getProjects() public view returns (ProjectStruct[] memory) {\r\n    ProjectStruct[] memory ps = new ProjectStruct[](numProjects);\r\n    for(uint8 i = 0; i < numProjects; i++) {\r\n      ps[i] = projects[i];\r\n    }\r\n    return ps;\r\n  }\r\n  \r\n  function getMilestones() public view returns (MilestoneStruct[] memory) {\r\n    MilestoneStruct[] memory ms = new MilestoneStruct[](numMilestones);\r\n    for(uint8 i = 0; i < numMilestones; i++) {\r\n      ms[i] = milestones[i];\r\n    }\r\n    return ms;\r\n  }\r\n  \r\n  function transferOwnership(address newOwner) public {\r\n    require(_owner == _msgSender(), \"Caller is not the owner\");\r\n    require(newOwner != address(0), \"New owner is the zero address\");\r\n    _setOwner(newOwner);\r\n  }\r\n  \r\n  function _setOwner(address newOwner) private {\r\n    address oldOwner = _owner;\r\n    _owner = newOwner;\r\n    emit OwnershipTransferred(oldOwner, newOwner);\r\n  }\r\n  \r\n  function addProxy(address proxyAddress, bool canDeposit, bool canWithdraw) public returns (bool) {\r\n    //only owner, client or proxy can proxy\r\n    (uint8 status, address userAddress) = isOwnerClientOrProxy(_msgSender());\r\n    require(status!=0, \"Not authorized\");\r\n    ProxyStruct storage proxy = proxies[proxyAddress];\r\n    proxy.toAddress = _msgSender();\r\n    proxy.canDeposit = canDeposit;\r\n    proxy.canWithdraw = canWithdraw;\r\n    proxy.isActive = true;\r\n    return true;\r\n  }\r\n  \r\n  function removeProxy(address proxyAddress) public {\r\n    //only owner, client or proxy can proxy\r\n    (uint8 status, address userAddress) = isOwnerClientOrProxy(_msgSender());\r\n    require(status!=0, \"Not authorized\");\r\n    ProxyStruct storage proxy = proxies[proxyAddress];\r\n    proxy.isActive = false;\r\n  }\r\n  \r\n  function getProxy(address fromAddress) private view returns (address, bool, bool) {\r\n    bool canDeposit = true;\r\n    bool canWithdraw = true;\r\n    address toAddress = fromAddress;\r\n    if(proxies[toAddress].isActive) {\r\n      canDeposit = proxies[toAddress].canDeposit;\r\n      canWithdraw = proxies[toAddress].canWithdraw;\r\n      while(proxies[toAddress].isActive) {\r\n        toAddress = proxies[toAddress].toAddress;\r\n      }\r\n    }\r\n    return (toAddress, canDeposit, canWithdraw);\r\n  }\r\n  \r\n  function isOwnerClientOrProxy(address userAddress) public view returns (uint8, address) {\r\n    (address toAddress, bool canDeposit, bool canWithdraw) = getProxy(userAddress);\r\n    if(toAddress==_owner) {\r\n      return (1, toAddress);\r\n    }\r\n    for(uint8 i=0; i<numProjects; i++) {\r\n      if(toAddress==projects[i].client) {\r\n        return (2, toAddress);\r\n      }\r\n    }\r\n    return (0, toAddress);\r\n  }\r\n}",
  "sourcePath": "C:\\Users\\lewis\\DEV\\temp\\rpay\\contracts\\RPay.sol",
  "compiler": {
    "name": "solc",
    "version": "0.8.13+commit.abaa5c0e.Emscripten.clang"
  },
  "schemaVersion": "3.4.5",
  "updatedAt": "2022-04-26T22:07:47.711Z",
  "devdoc": {
    "kind": "dev",
    "methods": {},
    "version": 1
  },
  "userdoc": {
    "kind": "user",
    "methods": {},
    "version": 1
  }
}