{
  "contractName": "RPay",
  "abi": [
    {
      "inputs": [
        {
          "internalType": "address",
          "name": "owner",
          "type": "address"
        },
        {
          "internalType": "string",
          "name": "name",
          "type": "string"
        }
      ],
      "stateMutability": "nonpayable",
      "type": "constructor"
    },
    {
      "anonymous": false,
      "inputs": [
        {
          "indexed": true,
          "internalType": "address",
          "name": "fromAddress",
          "type": "address"
        },
        {
          "indexed": true,
          "internalType": "address",
          "name": "toAddress",
          "type": "address"
        }
      ],
      "name": "AddProxy",
      "type": "event"
    },
    {
      "anonymous": false,
      "inputs": [
        {
          "indexed": true,
          "internalType": "uint256",
          "name": "projectID",
          "type": "uint256"
        },
        {
          "indexed": true,
          "internalType": "address",
          "name": "userAddress",
          "type": "address"
        },
        {
          "indexed": true,
          "internalType": "uint256",
          "name": "value",
          "type": "uint256"
        }
      ],
      "name": "Deposit",
      "type": "event"
    },
    {
      "anonymous": false,
      "inputs": [
        {
          "indexed": true,
          "internalType": "uint256",
          "name": "id",
          "type": "uint256"
        },
        {
          "indexed": true,
          "internalType": "uint256",
          "name": "projectID",
          "type": "uint256"
        }
      ],
      "name": "MilestoneCreated",
      "type": "event"
    },
    {
      "anonymous": false,
      "inputs": [
        {
          "indexed": true,
          "internalType": "address",
          "name": "previousOwner",
          "type": "address"
        },
        {
          "indexed": true,
          "internalType": "address",
          "name": "newOwner",
          "type": "address"
        }
      ],
      "name": "OwnershipTransferred",
      "type": "event"
    },
    {
      "anonymous": false,
      "inputs": [
        {
          "indexed": true,
          "internalType": "uint256",
          "name": "id",
          "type": "uint256"
        }
      ],
      "name": "ProjectCreated",
      "type": "event"
    },
    {
      "anonymous": false,
      "inputs": [
        {
          "indexed": true,
          "internalType": "address",
          "name": "fromAddress",
          "type": "address"
        },
        {
          "indexed": true,
          "internalType": "address",
          "name": "toAddress",
          "type": "address"
        }
      ],
      "name": "RemoveProxy",
      "type": "event"
    },
    {
      "anonymous": false,
      "inputs": [
        {
          "indexed": true,
          "internalType": "uint256",
          "name": "projectID",
          "type": "uint256"
        },
        {
          "indexed": true,
          "internalType": "address",
          "name": "userAddress",
          "type": "address"
        },
        {
          "indexed": true,
          "internalType": "uint256",
          "name": "value",
          "type": "uint256"
        }
      ],
      "name": "WithdrawClient",
      "type": "event"
    },
    {
      "anonymous": false,
      "inputs": [
        {
          "indexed": true,
          "internalType": "uint256",
          "name": "projectID",
          "type": "uint256"
        },
        {
          "indexed": true,
          "internalType": "address",
          "name": "userAddress",
          "type": "address"
        },
        {
          "indexed": true,
          "internalType": "uint256",
          "name": "value",
          "type": "uint256"
        }
      ],
      "name": "WithdrawOwner",
      "type": "event"
    },
    {
      "inputs": [],
      "name": "name",
      "outputs": [
        {
          "internalType": "string",
          "name": "",
          "type": "string"
        }
      ],
      "stateMutability": "view",
      "type": "function"
    },
    {
      "inputs": [],
      "name": "owner",
      "outputs": [
        {
          "internalType": "address",
          "name": "",
          "type": "address"
        }
      ],
      "stateMutability": "view",
      "type": "function"
    },
    {
      "inputs": [
        {
          "internalType": "string",
          "name": "name",
          "type": "string"
        },
        {
          "internalType": "string",
          "name": "meta",
          "type": "string"
        },
        {
          "internalType": "string",
          "name": "clientName",
          "type": "string"
        },
        {
          "internalType": "uint256",
          "name": "startDate",
          "type": "uint256"
        },
        {
          "internalType": "uint256",
          "name": "dueDate",
          "type": "uint256"
        },
        {
          "internalType": "address",
          "name": "client",
          "type": "address"
        },
        {
          "internalType": "address",
          "name": "token",
          "type": "address"
        },
        {
          "internalType": "uint256",
          "name": "value",
          "type": "uint256"
        },
        {
          "internalType": "uint256",
          "name": "frequency",
          "type": "uint256"
        }
      ],
      "name": "createProject",
      "outputs": [
        {
          "internalType": "uint256",
          "name": "projectID",
          "type": "uint256"
        }
      ],
      "stateMutability": "nonpayable",
      "type": "function"
    },
    {
      "inputs": [
        {
          "internalType": "uint256",
          "name": "projectID",
          "type": "uint256"
        },
        {
          "internalType": "string",
          "name": "name",
          "type": "string"
        },
        {
          "internalType": "string",
          "name": "meta",
          "type": "string"
        },
        {
          "internalType": "uint256",
          "name": "startDate",
          "type": "uint256"
        },
        {
          "internalType": "uint256",
          "name": "dueDate",
          "type": "uint256"
        },
        {
          "internalType": "uint256",
          "name": "value",
          "type": "uint256"
        }
      ],
      "name": "createMilestone",
      "outputs": [
        {
          "internalType": "uint256",
          "name": "milestoneID",
          "type": "uint256"
        }
      ],
      "stateMutability": "nonpayable",
      "type": "function"
    },
    {
      "inputs": [
        {
          "internalType": "uint256",
          "name": "projectID",
          "type": "uint256"
        },
        {
          "internalType": "uint256",
          "name": "value",
          "type": "uint256"
        }
      ],
      "name": "deposit",
      "outputs": [
        {
          "internalType": "bool",
          "name": "",
          "type": "bool"
        }
      ],
      "stateMutability": "nonpayable",
      "type": "function"
    },
    {
      "inputs": [
        {
          "internalType": "uint256",
          "name": "projectID",
          "type": "uint256"
        },
        {
          "internalType": "uint256",
          "name": "value",
          "type": "uint256"
        },
        {
          "internalType": "uint256",
          "name": "num",
          "type": "uint256"
        }
      ],
      "name": "withdrawOwner",
      "outputs": [
        {
          "internalType": "bool",
          "name": "",
          "type": "bool"
        }
      ],
      "stateMutability": "nonpayable",
      "type": "function"
    },
    {
      "inputs": [
        {
          "internalType": "uint256",
          "name": "projectID",
          "type": "uint256"
        },
        {
          "internalType": "uint256",
          "name": "value",
          "type": "uint256"
        }
      ],
      "name": "withdrawClient",
      "outputs": [
        {
          "internalType": "bool",
          "name": "",
          "type": "bool"
        }
      ],
      "stateMutability": "nonpayable",
      "type": "function"
    },
    {
      "inputs": [],
      "name": "getProjects",
      "outputs": [
        {
          "components": [
            {
              "internalType": "uint256",
              "name": "projectID",
              "type": "uint256"
            },
            {
              "internalType": "string",
              "name": "name",
              "type": "string"
            },
            {
              "internalType": "string",
              "name": "clientName",
              "type": "string"
            },
            {
              "internalType": "string",
              "name": "meta",
              "type": "string"
            },
            {
              "internalType": "uint256",
              "name": "startDate",
              "type": "uint256"
            },
            {
              "internalType": "uint256",
              "name": "dueDate",
              "type": "uint256"
            },
            {
              "internalType": "uint256",
              "name": "endDate",
              "type": "uint256"
            },
            {
              "internalType": "address",
              "name": "client",
              "type": "address"
            },
            {
              "internalType": "address",
              "name": "token",
              "type": "address"
            },
            {
              "internalType": "uint256",
              "name": "value",
              "type": "uint256"
            },
            {
              "internalType": "uint256",
              "name": "deposited",
              "type": "uint256"
            },
            {
              "internalType": "uint256",
              "name": "withdrawnClient",
              "type": "uint256"
            },
            {
              "internalType": "uint256",
              "name": "withdrawnOwner",
              "type": "uint256"
            },
            {
              "internalType": "uint256",
              "name": "discount",
              "type": "uint256"
            },
            {
              "internalType": "uint256",
              "name": "frequency",
              "type": "uint256"
            },
            {
              "internalType": "uint256",
              "name": "clientApproved",
              "type": "uint256"
            },
            {
              "internalType": "bool",
              "name": "isEntity",
              "type": "bool"
            }
          ],
          "internalType": "struct RPay.ProjectStruct[]",
          "name": "",
          "type": "tuple[]"
        }
      ],
      "stateMutability": "view",
      "type": "function"
    },
    {
      "inputs": [],
      "name": "getMilestones",
      "outputs": [
        {
          "components": [
            {
              "internalType": "uint256",
              "name": "milestoneID",
              "type": "uint256"
            },
            {
              "internalType": "uint256",
              "name": "projectID",
              "type": "uint256"
            },
            {
              "internalType": "string",
              "name": "name",
              "type": "string"
            },
            {
              "internalType": "string",
              "name": "meta",
              "type": "string"
            },
            {
              "internalType": "uint256",
              "name": "startDate",
              "type": "uint256"
            },
            {
              "internalType": "uint256",
              "name": "dueDate",
              "type": "uint256"
            },
            {
              "internalType": "uint256",
              "name": "endDate",
              "type": "uint256"
            },
            {
              "internalType": "uint256",
              "name": "value",
              "type": "uint256"
            },
            {
              "internalType": "uint256",
              "name": "clientApproved",
              "type": "uint256"
            },
            {
              "internalType": "bool",
              "name": "isEntity",
              "type": "bool"
            }
          ],
          "internalType": "struct RPay.MilestoneStruct[]",
          "name": "",
          "type": "tuple[]"
        }
      ],
      "stateMutability": "view",
      "type": "function"
    },
    {
      "inputs": [
        {
          "internalType": "address",
          "name": "newOwner",
          "type": "address"
        }
      ],
      "name": "transferOwnership",
      "outputs": [],
      "stateMutability": "nonpayable",
      "type": "function"
    },
    {
      "inputs": [
        {
          "internalType": "address",
          "name": "proxyAddress",
          "type": "address"
        },
        {
          "internalType": "bool",
          "name": "canDeposit",
          "type": "bool"
        },
        {
          "internalType": "bool",
          "name": "canWithdraw",
          "type": "bool"
        }
      ],
      "name": "addProxy",
      "outputs": [
        {
          "internalType": "bool",
          "name": "",
          "type": "bool"
        }
      ],
      "stateMutability": "nonpayable",
      "type": "function"
    },
    {
      "inputs": [
        {
          "internalType": "address",
          "name": "proxyAddress",
          "type": "address"
        }
      ],
      "name": "removeProxy",
      "outputs": [],
      "stateMutability": "nonpayable",
      "type": "function"
    },
    {
      "inputs": [
        {
          "internalType": "address",
          "name": "userAddress",
          "type": "address"
        }
      ],
      "name": "isOwnerClientOrProxy",
      "outputs": [
        {
          "internalType": "uint8",
          "name": "",
          "type": "uint8"
        },
        {
          "internalType": "address",
          "name": "",
          "type": "address"
        }
      ],
      "stateMutability": "view",
      "type": "function"
    }
  ],
  "bytecode": "0x60806040523480156200001157600080fd5b50604051620042ec380380620042ec83398181016040528101906200003791906200034a565b816000806101000a81548173ffffffffffffffffffffffffffffffffffffffff021916908373ffffffffffffffffffffffffffffffffffffffff16021790555080600190805190602001906200008f92919062000098565b50505062000414565b828054620000a690620003df565b90600052602060002090601f016020900481019282620000ca576000855562000116565b82601f10620000e557805160ff191683800117855562000116565b8280016001018555821562000116579182015b8281111562000115578251825591602001919060010190620000f8565b5b50905062000125919062000129565b5090565b5b80821115620001445760008160009055506001016200012a565b5090565b6000604051905090565b600080fd5b600080fd5b600073ffffffffffffffffffffffffffffffffffffffff82169050919050565b600062000189826200015c565b9050919050565b6200019b816200017c565b8114620001a757600080fd5b50565b600081519050620001bb8162000190565b92915050565b600080fd5b600080fd5b6000601f19601f8301169050919050565b7f4e487b7100000000000000000000000000000000000000000000000000000000600052604160045260246000fd5b6200021682620001cb565b810181811067ffffffffffffffff82111715620002385762000237620001dc565b5b80604052505050565b60006200024d62000148565b90506200025b82826200020b565b919050565b600067ffffffffffffffff8211156200027e576200027d620001dc565b5b6200028982620001cb565b9050602081019050919050565b60005b83811015620002b657808201518184015260208101905062000299565b83811115620002c6576000848401525b50505050565b6000620002e3620002dd8462000260565b62000241565b905082815260208101848484011115620003025762000301620001c6565b5b6200030f84828562000296565b509392505050565b600082601f8301126200032f576200032e620001c1565b5b815162000341848260208601620002cc565b91505092915050565b6000806040838503121562000364576200036362000152565b5b60006200037485828601620001aa565b925050602083015167ffffffffffffffff81111562000398576200039762000157565b5b620003a68582860162000317565b9150509250929050565b7f4e487b7100000000000000000000000000000000000000000000000000000000600052602260045260246000fd5b60006002820490506001821680620003f857607f821691505b6020821081036200040e576200040d620003b0565b5b50919050565b613ec880620004246000396000f3fe608060405234801561001057600080fd5b50600436106100cf5760003560e01c8063a19fc1141161008c578063dcc6012811610066578063dcc601281461023b578063e2bbb15814610259578063eb4db2a214610289578063f2fde38b146102b9576100cf565b8063a19fc114146101be578063a5870107146101ef578063be116c3b1461021f576100cf565b806306fdde03146100d457806324aeab46146100f2578063620d1fee14610122578063629e4ed0146101525780638da5cb5b1461017057806397be91251461018e575b600080fd5b6100dc6102d5565b6040516100e99190612a53565b60405180910390f35b61010c60048036038101906101079190612c52565b610367565b6040516101199190612d7f565b60405180910390f35b61013c60048036038101906101379190612d9a565b61059c565b6040516101499190612e08565b60405180910390f35b61015a610c15565b604051610167919061302e565b60405180910390f35b610178610e5b565b604051610185919061305f565b60405180910390f35b6101a860048036038101906101a391906130da565b610e84565b6040516101b59190612d7f565b60405180910390f35b6101d860048036038101906101d391906131a9565b61100e565b6040516101e69291906131f2565b60405180910390f35b6102096004803603810190610204919061321b565b611131565b6040516102169190612e08565b60405180910390f35b610239600480360381019061023491906131a9565b6119f6565b005b610243611ab9565b60405161025091906134a7565b60405180910390f35b610273600480360381019061026e919061321b565b611e65565b6040516102809190612e08565b60405180910390f35b6102a3600480360381019061029e91906134f5565b612251565b6040516102b09190612e08565b60405180910390f35b6102d360048036038101906102ce91906131a9565b6123a0565b005b6060600180546102e490613577565b80601f016020809104026020016040519081016040528092919081815260200182805461031090613577565b801561035d5780601f106103325761010080835404028352916020019161035d565b820191906000526020600020905b81548152906001019060200180831161034057829003601f168201915b5050505050905090565b60008060008061037d6103786124b0565b6124b8565b92509250925060008054906101000a900473ffffffffffffffffffffffffffffffffffffffff1673ffffffffffffffffffffffffffffffffffffffff168373ffffffffffffffffffffffffffffffffffffffff1614610411576040517f08c379a0000000000000000000000000000000000000000000000000000000008152600401610408906135f4565b60405180910390fd5b6002600081548092919061042490613643565b91905055935060006003600086815260200190815260200160002090508481600001819055508d81600101908051906020019061046292919061278a565b508b81600201908051906020019061047b92919061278a565b508c81600301908051906020019061049492919061278a565b508a8160040181905550898160050181905550888160070160006101000a81548173ffffffffffffffffffffffffffffffffffffffff021916908373ffffffffffffffffffffffffffffffffffffffff160217905550878160080160006101000a81548173ffffffffffffffffffffffffffffffffffffffff021916908373ffffffffffffffffffffffffffffffffffffffff1602179055508681600901819055508581600e018190555060018160100160006101000a81548160ff0219169083151502179055506002547f1ac2092e16e28eef29d1832f3dc69da1b21284a1f3159d3b26cb238b22fe4f8a60405160405180910390a2505050509998505050505050505050565b6000806000806105b26105ad6124b0565b6124b8565b92509250925060008054906101000a900473ffffffffffffffffffffffffffffffffffffffff1673ffffffffffffffffffffffffffffffffffffffff168373ffffffffffffffffffffffffffffffffffffffff1614610646576040517f08c379a000000000000000000000000000000000000000000000000000000000815260040161063d906136d7565b60405180910390fd5b80610686576040517f08c379a000000000000000000000000000000000000000000000000000000000815260040161067d90613743565b60405180910390fd5b6003600088815260200190815260200160002060100160009054906101000a900460ff166106e9576040517f08c379a00000000000000000000000000000000000000000000000000000000081526004016106e0906137af565b60405180910390fd5b600060036000898152602001908152602001600020600c015461070c898861269a565b61071691906137cf565b90506000600360008a8152602001908152602001600020600c0154600360008b8152602001908152602001600020600b0154600360008c8152602001908152602001600020600a015461076991906137cf565b61077391906137cf565b9050818811156107b8576040517f08c379a00000000000000000000000000000000000000000000000000000000081526004016107af9061384f565b60405180910390fd5b808811156107fb576040517f08c379a00000000000000000000000000000000000000000000000000000000081526004016107f2906138bb565b60405180910390fd5b6000600360008b815260200190815260200160002060080160009054906101000a900473ffffffffffffffffffffffffffffffffffffffff1673ffffffffffffffffffffffffffffffffffffffff166370a08231306040518263ffffffff1660e01b815260040161086c919061305f565b602060405180830381865afa158015610889573d6000803e3d6000fd5b505050506040513d601f19601f820116820180604052508101906108ad91906138f0565b9050808911156108f2576040517f08c379a00000000000000000000000000000000000000000000000000000000081526004016108e9906138bb565b60405180910390fd5b6000600360008c815260200190815260200160002060080160009054906101000a900473ffffffffffffffffffffffffffffffffffffffff1673ffffffffffffffffffffffffffffffffffffffff1663dd62ed3e30306040518363ffffffff1660e01b815260040161096592919061391d565b602060405180830381865afa158015610982573d6000803e3d6000fd5b505050506040513d601f19601f820116820180604052508101906109a691906138f0565b905060008103610a8657600360008c815260200190815260200160002060080160009054906101000a900473ffffffffffffffffffffffffffffffffffffffff1673ffffffffffffffffffffffffffffffffffffffff1663095ea7b3307ffffffffffffffffffffffffffffffffffffffffffffffff993068009ac118ae86040518363ffffffff1660e01b8152600401610a4192919061398b565b6020604051808303816000875af1158015610a60573d6000803e3d6000fd5b505050506040513d601f19601f82011682018060405250810190610a8491906139c9565b505b6000600360008d815260200190815260200160002060080160009054906101000a900473ffffffffffffffffffffffffffffffffffffffff1673ffffffffffffffffffffffffffffffffffffffff166323b872dd30610ae36124b0565b8e6040518463ffffffff1660e01b8152600401610b02939291906139f6565b6020604051808303816000875af1158015610b21573d6000803e3d6000fd5b505050506040513d601f19601f82011682018060405250810190610b4591906139c9565b90508015610bcb578a610b566124b0565b73ffffffffffffffffffffffffffffffffffffffff168d7f9b8e4a594394ff6269b0bb73fc96e495ea5cf99d06df38645888808d48fdfc0560405160405180910390a48a600360008e8152602001908152602001600020600c016000828254610bbf9190613a2d565b92505081905550610c06565b6040517f08c379a0000000000000000000000000000000000000000000000000000000008152600401610bfd90613acf565b60405180910390fd5b50505050505050509392505050565b6060600060045467ffffffffffffffff811115610c3557610c34612a93565b5b604051908082528060200260200182016040528015610c6e57816020015b610c5b612810565b815260200190600190039081610c535790505b50905060005b600454811015610e535760056000828152602001908152602001600020604051806101400160405290816000820154815260200160018201548152602001600282018054610cc190613577565b80601f0160208091040260200160405190810160405280929190818152602001828054610ced90613577565b8015610d3a5780601f10610d0f57610100808354040283529160200191610d3a565b820191906000526020600020905b815481529060010190602001808311610d1d57829003601f168201915b50505050508152602001600382018054610d5390613577565b80601f0160208091040260200160405190810160405280929190818152602001828054610d7f90613577565b8015610dcc5780601f10610da157610100808354040283529160200191610dcc565b820191906000526020600020905b815481529060010190602001808311610daf57829003601f168201915b5050505050815260200160048201548152602001600582015481526020016006820154815260200160078201548152602001600882015481526020016009820160009054906101000a900460ff161515151581525050828281518110610e3557610e34613aef565b5b60200260200101819052508080610e4b90613643565b915050610c74565b508091505090565b60008060009054906101000a900473ffffffffffffffffffffffffffffffffffffffff16905090565b600080600080610e9a610e956124b0565b6124b8565b92509250925060008054906101000a900473ffffffffffffffffffffffffffffffffffffffff1673ffffffffffffffffffffffffffffffffffffffff168373ffffffffffffffffffffffffffffffffffffffff1614610f2e576040517f08c379a0000000000000000000000000000000000000000000000000000000008152600401610f2590613b90565b60405180910390fd5b60046000815480929190610f4190613643565b91905055935060006005600086815260200190815260200160002090508481600001819055508c81600101819055508b8b826002019190610f83929190612865565b508989826003019190610f97929190612865565b5087816004018190555086816005018190555085816007018190555060018160090160006101000a81548160ff0219169083151502179055508c857f3a2622619a6ba11c3f6805f19879501605e35983595b15a0a32c8982c5c4567760405160405180910390a35050505098975050505050505050565b600080600080600061101f866124b8565b92509250925060008054906101000a900473ffffffffffffffffffffffffffffffffffffffff1673ffffffffffffffffffffffffffffffffffffffff168373ffffffffffffffffffffffffffffffffffffffff1603611087576001839450945050505061112c565b60005b600254811015611120576003600082815260200190815260200160002060070160009054906101000a900473ffffffffffffffffffffffffffffffffffffffff1673ffffffffffffffffffffffffffffffffffffffff168473ffffffffffffffffffffffffffffffffffffffff160361110d57600284955095505050505061112c565b808061111890613643565b91505061108a565b50600083945094505050505b915091565b6000806000806111476111426124b0565b6124b8565b9250925092508061118d576040517f08c379a000000000000000000000000000000000000000000000000000000000815260040161118490613743565b60405180910390fd5b6003600087815260200190815260200160002060100160009054906101000a900460ff166111f0576040517f08c379a00000000000000000000000000000000000000000000000000000000081526004016111e7906137af565b60405180910390fd5b600060036000888152602001908152602001600020604051806102200160405290816000820154815260200160018201805461122b90613577565b80601f016020809104026020016040519081016040528092919081815260200182805461125790613577565b80156112a45780601f10611279576101008083540402835291602001916112a4565b820191906000526020600020905b81548152906001019060200180831161128757829003601f168201915b505050505081526020016002820180546112bd90613577565b80601f01602080910402602001604051908101604052809291908181526020018280546112e990613577565b80156113365780601f1061130b57610100808354040283529160200191611336565b820191906000526020600020905b81548152906001019060200180831161131957829003601f168201915b5050505050815260200160038201805461134f90613577565b80601f016020809104026020016040519081016040528092919081815260200182805461137b90613577565b80156113c85780601f1061139d576101008083540402835291602001916113c8565b820191906000526020600020905b8154815290600101906020018083116113ab57829003601f168201915b505050505081526020016004820154815260200160058201548152602001600682015481526020016007820160009054906101000a900473ffffffffffffffffffffffffffffffffffffffff1673ffffffffffffffffffffffffffffffffffffffff1673ffffffffffffffffffffffffffffffffffffffff1681526020016008820160009054906101000a900473ffffffffffffffffffffffffffffffffffffffff1673ffffffffffffffffffffffffffffffffffffffff1673ffffffffffffffffffffffffffffffffffffffff16815260200160098201548152602001600a8201548152602001600b8201548152602001600c8201548152602001600d8201548152602001600e8201548152602001600f82015481526020016010820160009054906101000a900460ff16151515158152505090508060e0015173ffffffffffffffffffffffffffffffffffffffff168473ffffffffffffffffffffffffffffffffffffffff1614611570576040517f08c379a000000000000000000000000000000000000000000000000000000000815260040161156790613bfc565b60405180910390fd5b600081610180015182610160015183610140015161158e91906137cf565b61159891906137cf565b9050808711156115dd576040517f08c379a00000000000000000000000000000000000000000000000000000000081526004016115d4906138bb565b60405180910390fd5b6000600360008a815260200190815260200160002060080160009054906101000a900473ffffffffffffffffffffffffffffffffffffffff1673ffffffffffffffffffffffffffffffffffffffff166370a08231306040518263ffffffff1660e01b815260040161164e919061305f565b602060405180830381865afa15801561166b573d6000803e3d6000fd5b505050506040513d601f19601f8201168201806040525081019061168f91906138f0565b9050808811156116d4576040517f08c379a00000000000000000000000000000000000000000000000000000000081526004016116cb906138bb565b60405180910390fd5b6000600360008b815260200190815260200160002060080160009054906101000a900473ffffffffffffffffffffffffffffffffffffffff1673ffffffffffffffffffffffffffffffffffffffff1663dd62ed3e30306040518363ffffffff1660e01b815260040161174792919061391d565b602060405180830381865afa158015611764573d6000803e3d6000fd5b505050506040513d601f19601f8201168201806040525081019061178891906138f0565b90506000810361186857600360008b815260200190815260200160002060080160009054906101000a900473ffffffffffffffffffffffffffffffffffffffff1673ffffffffffffffffffffffffffffffffffffffff1663095ea7b3307ffffffffffffffffffffffffffffffffffffffffffffffff993068009ac118ae86040518363ffffffff1660e01b815260040161182392919061398b565b6020604051808303816000875af1158015611842573d6000803e3d6000fd5b505050506040513d601f19601f8201168201806040525081019061186691906139c9565b505b6000600360008c815260200190815260200160002060080160009054906101000a900473ffffffffffffffffffffffffffffffffffffffff1673ffffffffffffffffffffffffffffffffffffffff166323b872dd306118c56124b0565b8d6040518463ffffffff1660e01b81526004016118e4939291906139f6565b6020604051808303816000875af1158015611903573d6000803e3d6000fd5b505050506040513d601f19601f8201168201806040525081019061192791906139c9565b905080156119ad57896119386124b0565b73ffffffffffffffffffffffffffffffffffffffff168c7f6068adcb40c8fefb47672ea89908634044c63854b255e83471c9b16f0b2ad72f60405160405180910390a489600360008d8152602001908152602001600020600b0160008282546119a19190613a2d565b925050819055506119e8565b6040517f08c379a00000000000000000000000000000000000000000000000000000000081526004016119df90613acf565b60405180910390fd5b505050505050505092915050565b600080611a09611a046124b0565b61100e565b9150915060008260ff1603611a53576040517f08c379a0000000000000000000000000000000000000000000000000000000008152600401611a4a90613c68565b60405180910390fd5b6000600660008573ffffffffffffffffffffffffffffffffffffffff1673ffffffffffffffffffffffffffffffffffffffff168152602001908152602001600020905060008160000160166101000a81548160ff02191690831515021790555050505050565b6060600060025467ffffffffffffffff811115611ad957611ad8612a93565b5b604051908082528060200260200182016040528015611b1257816020015b611aff6128eb565b815260200190600190039081611af75790505b50905060005b600254811015611e5d57600360008281526020019081526020016000206040518061022001604052908160008201548152602001600182018054611b5b90613577565b80601f0160208091040260200160405190810160405280929190818152602001828054611b8790613577565b8015611bd45780601f10611ba957610100808354040283529160200191611bd4565b820191906000526020600020905b815481529060010190602001808311611bb757829003601f168201915b50505050508152602001600282018054611bed90613577565b80601f0160208091040260200160405190810160405280929190818152602001828054611c1990613577565b8015611c665780601f10611c3b57610100808354040283529160200191611c66565b820191906000526020600020905b815481529060010190602001808311611c4957829003601f168201915b50505050508152602001600382018054611c7f90613577565b80601f0160208091040260200160405190810160405280929190818152602001828054611cab90613577565b8015611cf85780601f10611ccd57610100808354040283529160200191611cf8565b820191906000526020600020905b815481529060010190602001808311611cdb57829003601f168201915b505050505081526020016004820154815260200160058201548152602001600682015481526020016007820160009054906101000a900473ffffffffffffffffffffffffffffffffffffffff1673ffffffffffffffffffffffffffffffffffffffff1673ffffffffffffffffffffffffffffffffffffffff1681526020016008820160009054906101000a900473ffffffffffffffffffffffffffffffffffffffff1673ffffffffffffffffffffffffffffffffffffffff1673ffffffffffffffffffffffffffffffffffffffff16815260200160098201548152602001600a8201548152602001600b8201548152602001600c8201548152602001600d8201548152602001600e8201548152602001600f82015481526020016010820160009054906101000a900460ff161515151581525050828281518110611e3f57611e3e613aef565b5b60200260200101819052508080611e5590613643565b915050611b18565b508091505090565b600080600080611e7b611e766124b0565b6124b8565b9250925092506003600087815260200190815260200160002060100160009054906101000a900460ff16611ee4576040517f08c379a0000000000000000000000000000000000000000000000000000000008152600401611edb906137af565b60405180910390fd5b6003600087815260200190815260200160002060070160009054906101000a900473ffffffffffffffffffffffffffffffffffffffff1673ffffffffffffffffffffffffffffffffffffffff168373ffffffffffffffffffffffffffffffffffffffff1614611f88576040517f08c379a0000000000000000000000000000000000000000000000000000000008152600401611f7f90613cd4565b60405180910390fd5b81611fc8576040517f08c379a0000000000000000000000000000000000000000000000000000000008152600401611fbf90613d40565b60405180910390fd5b60006003600088815260200190815260200160002060080160009054906101000a900473ffffffffffffffffffffffffffffffffffffffff1673ffffffffffffffffffffffffffffffffffffffff166370a082316120246124b0565b6040518263ffffffff1660e01b8152600401612040919061305f565b602060405180830381865afa15801561205d573d6000803e3d6000fd5b505050506040513d601f19601f8201168201806040525081019061208191906138f0565b9050808611156120c6576040517f08c379a00000000000000000000000000000000000000000000000000000000081526004016120bd906138bb565b60405180910390fd5b60006003600089815260200190815260200160002060080160009054906101000a900473ffffffffffffffffffffffffffffffffffffffff1673ffffffffffffffffffffffffffffffffffffffff166323b872dd6121226124b0565b308a6040518463ffffffff1660e01b8152600401612142939291906139f6565b6020604051808303816000875af1158015612161573d6000803e3d6000fd5b505050506040513d601f19601f8201168201806040525081019061218591906139c9565b9050801561220b57866121966124b0565b73ffffffffffffffffffffffffffffffffffffffff16897feaa18152488ce5959073c9c79c88ca90b3d96c00de1f118cfaad664c3dab06b960405160405180910390a486600360008a8152602001908152602001600020600a0160008282546121ff9190613a2d565b92505081905550612246565b6040517f08c379a000000000000000000000000000000000000000000000000000000000815260040161223d90613acf565b60405180910390fd5b505050505092915050565b60008060006122666122616124b0565b61100e565b9150915060008260ff16036122b0576040517f08c379a00000000000000000000000000000000000000000000000000000000081526004016122a790613c68565b60405180910390fd5b6000600660008873ffffffffffffffffffffffffffffffffffffffff1673ffffffffffffffffffffffffffffffffffffffff16815260200190815260200160002090506122fb6124b0565b8160000160006101000a81548173ffffffffffffffffffffffffffffffffffffffff021916908373ffffffffffffffffffffffffffffffffffffffff160217905550858160000160146101000a81548160ff021916908315150217905550848160000160156101000a81548160ff02191690831515021790555060018160000160166101000a81548160ff021916908315150217905550600193505050509392505050565b6123a86124b0565b73ffffffffffffffffffffffffffffffffffffffff1660008054906101000a900473ffffffffffffffffffffffffffffffffffffffff1673ffffffffffffffffffffffffffffffffffffffff1614612435576040517f08c379a000000000000000000000000000000000000000000000000000000000815260040161242c90613dac565b60405180910390fd5b600073ffffffffffffffffffffffffffffffffffffffff168173ffffffffffffffffffffffffffffffffffffffff16036124a4576040517f08c379a000000000000000000000000000000000000000000000000000000000815260040161249b90613e18565b60405180910390fd5b6124ad816126c6565b50565b600033905090565b600080600080600190506000600190506000869050600660008273ffffffffffffffffffffffffffffffffffffffff1673ffffffffffffffffffffffffffffffffffffffff16815260200190815260200160002060000160169054906101000a900460ff161561268757600660008273ffffffffffffffffffffffffffffffffffffffff1673ffffffffffffffffffffffffffffffffffffffff16815260200190815260200160002060000160149054906101000a900460ff169250600660008273ffffffffffffffffffffffffffffffffffffffff1673ffffffffffffffffffffffffffffffffffffffff16815260200190815260200160002060000160159054906101000a900460ff1691505b600660008273ffffffffffffffffffffffffffffffffffffffff1673ffffffffffffffffffffffffffffffffffffffff16815260200190815260200160002060000160169054906101000a900460ff161561268657600660008273ffffffffffffffffffffffffffffffffffffffff1673ffffffffffffffffffffffffffffffffffffffff16815260200190815260200160002060000160009054906101000a900473ffffffffffffffffffffffffffffffffffffffff1690506125c7565b5b8083839550955095505050509193909250565b60006003600084815260200190815260200160002060090154826126be9190613e38565b905092915050565b60008060009054906101000a900473ffffffffffffffffffffffffffffffffffffffff169050816000806101000a81548173ffffffffffffffffffffffffffffffffffffffff021916908373ffffffffffffffffffffffffffffffffffffffff1602179055508173ffffffffffffffffffffffffffffffffffffffff168173ffffffffffffffffffffffffffffffffffffffff167f8be0079c531659141344cd1fd0a4f28419497f9722a3daafe3b4186f6b6457e060405160405180910390a35050565b82805461279690613577565b90600052602060002090601f0160209004810192826127b857600085556127ff565b82601f106127d157805160ff19168380011785556127ff565b828001600101855582156127ff579182015b828111156127fe5782518255916020019190600101906127e3565b5b50905061280c919061299d565b5090565b6040518061014001604052806000815260200160008152602001606081526020016060815260200160008152602001600081526020016000815260200160008152602001600081526020016000151581525090565b82805461287190613577565b90600052602060002090601f01602090048101928261289357600085556128da565b82601f106128ac57803560ff19168380011785556128da565b828001600101855582156128da579182015b828111156128d95782358255916020019190600101906128be565b5b5090506128e7919061299d565b5090565b60405180610220016040528060008152602001606081526020016060815260200160608152602001600081526020016000815260200160008152602001600073ffffffffffffffffffffffffffffffffffffffff168152602001600073ffffffffffffffffffffffffffffffffffffffff168152602001600081526020016000815260200160008152602001600081526020016000815260200160008152602001600081526020016000151581525090565b5b808211156129b657600081600090555060010161299e565b5090565b600081519050919050565b600082825260208201905092915050565b60005b838110156129f45780820151818401526020810190506129d9565b83811115612a03576000848401525b50505050565b6000601f19601f8301169050919050565b6000612a25826129ba565b612a2f81856129c5565b9350612a3f8185602086016129d6565b612a4881612a09565b840191505092915050565b60006020820190508181036000830152612a6d8184612a1a565b905092915050565b6000604051905090565b600080fd5b600080fd5b600080fd5b600080fd5b7f4e487b7100000000000000000000000000000000000000000000000000000000600052604160045260246000fd5b612acb82612a09565b810181811067ffffffffffffffff82111715612aea57612ae9612a93565b5b80604052505050565b6000612afd612a75565b9050612b098282612ac2565b919050565b600067ffffffffffffffff821115612b2957612b28612a93565b5b612b3282612a09565b9050602081019050919050565b82818337600083830152505050565b6000612b61612b5c84612b0e565b612af3565b905082815260208101848484011115612b7d57612b7c612a8e565b5b612b88848285612b3f565b509392505050565b600082601f830112612ba557612ba4612a89565b5b8135612bb5848260208601612b4e565b91505092915050565b6000819050919050565b612bd181612bbe565b8114612bdc57600080fd5b50565b600081359050612bee81612bc8565b92915050565b600073ffffffffffffffffffffffffffffffffffffffff82169050919050565b6000612c1f82612bf4565b9050919050565b612c2f81612c14565b8114612c3a57600080fd5b50565b600081359050612c4c81612c26565b92915050565b60008060008060008060008060006101208a8c031215612c7557612c74612a7f565b5b60008a013567ffffffffffffffff811115612c9357612c92612a84565b5b612c9f8c828d01612b90565b99505060208a013567ffffffffffffffff811115612cc057612cbf612a84565b5b612ccc8c828d01612b90565b98505060408a013567ffffffffffffffff811115612ced57612cec612a84565b5b612cf98c828d01612b90565b9750506060612d0a8c828d01612bdf565b9650506080612d1b8c828d01612bdf565b95505060a0612d2c8c828d01612c3d565b94505060c0612d3d8c828d01612c3d565b93505060e0612d4e8c828d01612bdf565b925050610100612d608c828d01612bdf565b9150509295985092959850929598565b612d7981612bbe565b82525050565b6000602082019050612d946000830184612d70565b92915050565b600080600060608486031215612db357612db2612a7f565b5b6000612dc186828701612bdf565b9350506020612dd286828701612bdf565b9250506040612de386828701612bdf565b9150509250925092565b60008115159050919050565b612e0281612ded565b82525050565b6000602082019050612e1d6000830184612df9565b92915050565b600081519050919050565b600082825260208201905092915050565b6000819050602082019050919050565b612e5881612bbe565b82525050565b600082825260208201905092915050565b6000612e7a826129ba565b612e848185612e5e565b9350612e948185602086016129d6565b612e9d81612a09565b840191505092915050565b612eb181612ded565b82525050565b600061014083016000830151612ed06000860182612e4f565b506020830151612ee36020860182612e4f565b5060408301518482036040860152612efb8282612e6f565b91505060608301518482036060860152612f158282612e6f565b9150506080830151612f2a6080860182612e4f565b5060a0830151612f3d60a0860182612e4f565b5060c0830151612f5060c0860182612e4f565b5060e0830151612f6360e0860182612e4f565b50610100830151612f78610100860182612e4f565b50610120830151612f8d610120860182612ea8565b508091505092915050565b6000612fa48383612eb7565b905092915050565b6000602082019050919050565b6000612fc482612e23565b612fce8185612e2e565b935083602082028501612fe085612e3f565b8060005b8581101561301c5784840389528151612ffd8582612f98565b945061300883612fac565b925060208a01995050600181019050612fe4565b50829750879550505050505092915050565b600060208201905081810360008301526130488184612fb9565b905092915050565b61305981612c14565b82525050565b60006020820190506130746000830184613050565b92915050565b600080fd5b600080fd5b60008083601f84011261309a57613099612a89565b5b8235905067ffffffffffffffff8111156130b7576130b661307a565b5b6020830191508360018202830111156130d3576130d261307f565b5b9250929050565b60008060008060008060008060c0898b0312156130fa576130f9612a7f565b5b60006131088b828c01612bdf565b985050602089013567ffffffffffffffff81111561312957613128612a84565b5b6131358b828c01613084565b9750975050604089013567ffffffffffffffff81111561315857613157612a84565b5b6131648b828c01613084565b955095505060606131778b828c01612bdf565b93505060806131888b828c01612bdf565b92505060a06131998b828c01612bdf565b9150509295985092959890939650565b6000602082840312156131bf576131be612a7f565b5b60006131cd84828501612c3d565b91505092915050565b600060ff82169050919050565b6131ec816131d6565b82525050565b600060408201905061320760008301856131e3565b6132146020830184613050565b9392505050565b6000806040838503121561323257613231612a7f565b5b600061324085828601612bdf565b925050602061325185828601612bdf565b9150509250929050565b600081519050919050565b600082825260208201905092915050565b6000819050602082019050919050565b61329081612c14565b82525050565b6000610220830160008301516132af6000860182612e4f565b50602083015184820360208601526132c78282612e6f565b915050604083015184820360408601526132e18282612e6f565b915050606083015184820360608601526132fb8282612e6f565b91505060808301516133106080860182612e4f565b5060a083015161332360a0860182612e4f565b5060c083015161333660c0860182612e4f565b5060e083015161334960e0860182613287565b5061010083015161335e610100860182613287565b50610120830151613373610120860182612e4f565b50610140830151613388610140860182612e4f565b5061016083015161339d610160860182612e4f565b506101808301516133b2610180860182612e4f565b506101a08301516133c76101a0860182612e4f565b506101c08301516133dc6101c0860182612e4f565b506101e08301516133f16101e0860182612e4f565b50610200830151613406610200860182612ea8565b508091505092915050565b600061341d8383613296565b905092915050565b6000602082019050919050565b600061343d8261325b565b6134478185613266565b93508360208202850161345985613277565b8060005b8581101561349557848403895281516134768582613411565b945061348183613425565b925060208a0199505060018101905061345d565b50829750879550505050505092915050565b600060208201905081810360008301526134c18184613432565b905092915050565b6134d281612ded565b81146134dd57600080fd5b50565b6000813590506134ef816134c9565b92915050565b60008060006060848603121561350e5761350d612a7f565b5b600061351c86828701612c3d565b935050602061352d868287016134e0565b925050604061353e868287016134e0565b9150509250925092565b7f4e487b7100000000000000000000000000000000000000000000000000000000600052602260045260246000fd5b6000600282049050600182168061358f57607f821691505b6020821081036135a2576135a1613548565b5b50919050565b7f4f6e6c79206f776e65722063616e2063726561746520612070726f6a65637400600082015250565b60006135de601f836129c5565b91506135e9826135a8565b602082019050919050565b6000602082019050818103600083015261360d816135d1565b9050919050565b7f4e487b7100000000000000000000000000000000000000000000000000000000600052601160045260246000fd5b600061364e82612bbe565b91507fffffffffffffffffffffffffffffffffffffffffffffffffffffffffffffffff82036136805761367f613614565b5b600182019050919050565b7f4f6e6c79206f776e65722063616e207769746864726177000000000000000000600082015250565b60006136c16017836129c5565b91506136cc8261368b565b602082019050919050565b600060208201905081810360008301526136f0816136b4565b9050919050565b7f57697468647261772070726f6869626974656400000000000000000000000000600082015250565b600061372d6013836129c5565b9150613738826136f7565b602082019050919050565b6000602082019050818103600083015261375c81613720565b9050919050565b7f50726f6a65637420646f6573206e6f7420657869737400000000000000000000600082015250565b60006137996016836129c5565b91506137a482613763565b602082019050919050565b600060208201905081810360008301526137c88161378c565b9050919050565b60006137da82612bbe565b91506137e583612bbe565b9250828210156137f8576137f7613614565b5b828203905092915050565b7f4e6f7420616c6c6f776564000000000000000000000000000000000000000000600082015250565b6000613839600b836129c5565b915061384482613803565b602082019050919050565b600060208201905081810360008301526138688161382c565b9050919050565b7f4e6f7420656e6f7567682066756e647300000000000000000000000000000000600082015250565b60006138a56010836129c5565b91506138b08261386f565b602082019050919050565b600060208201905081810360008301526138d481613898565b9050919050565b6000815190506138ea81612bc8565b92915050565b60006020828403121561390657613905612a7f565b5b6000613914848285016138db565b91505092915050565b60006040820190506139326000830185613050565b61393f6020830184613050565b9392505050565b6000819050919050565b6000819050919050565b600061397561397061396b84613946565b613950565b612bbe565b9050919050565b6139858161395a565b82525050565b60006040820190506139a06000830185613050565b6139ad602083018461397c565b9392505050565b6000815190506139c3816134c9565b92915050565b6000602082840312156139df576139de612a7f565b5b60006139ed848285016139b4565b91505092915050565b6000606082019050613a0b6000830186613050565b613a186020830185613050565b613a256040830184612d70565b949350505050565b6000613a3882612bbe565b9150613a4383612bbe565b9250827fffffffffffffffffffffffffffffffffffffffffffffffffffffffffffffffff03821115613a7857613a77613614565b5b828201905092915050565b7f4572726f72207472616e7366657272696e672066756e64730000000000000000600082015250565b6000613ab96018836129c5565b9150613ac482613a83565b602082019050919050565b60006020820190508181036000830152613ae881613aac565b9050919050565b7f4e487b7100000000000000000000000000000000000000000000000000000000600052603260045260246000fd5b7f4f6e6c79206f776e65722063616e206372656174652061206d696c6573746f6e60008201527f6500000000000000000000000000000000000000000000000000000000000000602082015250565b6000613b7a6021836129c5565b9150613b8582613b1e565b604082019050919050565b60006020820190508181036000830152613ba981613b6d565b9050919050565b7f4f6e6c792070726f6a65637420636c69656e742063616e207769746864726177600082015250565b6000613be66020836129c5565b9150613bf182613bb0565b602082019050919050565b60006020820190508181036000830152613c1581613bd9565b9050919050565b7f4e6f7420617574686f72697a6564000000000000000000000000000000000000600082015250565b6000613c52600e836129c5565b9150613c5d82613c1c565b602082019050919050565b60006020820190508181036000830152613c8181613c45565b9050919050565b7f4f6e6c792070726f6a65637420636c69656e742063616e206465706f73697400600082015250565b6000613cbe601f836129c5565b9150613cc982613c88565b602082019050919050565b60006020820190508181036000830152613ced81613cb1565b9050919050565b7f4465706f7369742070726f686962697465640000000000000000000000000000600082015250565b6000613d2a6012836129c5565b9150613d3582613cf4565b602082019050919050565b60006020820190508181036000830152613d5981613d1d565b9050919050565b7f43616c6c6572206973206e6f7420746865206f776e6572000000000000000000600082015250565b6000613d966017836129c5565b9150613da182613d60565b602082019050919050565b60006020820190508181036000830152613dc581613d89565b9050919050565b7f4e6577206f776e657220697320746865207a65726f2061646472657373000000600082015250565b6000613e02601d836129c5565b9150613e0d82613dcc565b602082019050919050565b60006020820190508181036000830152613e3181613df5565b9050919050565b6000613e4382612bbe565b9150613e4e83612bbe565b9250817fffffffffffffffffffffffffffffffffffffffffffffffffffffffffffffffff0483118215151615613e8757613e86613614565b5b82820290509291505056fea264697066735822122008bb83a4b9c82c2ea77d884a8f951fbf3793616e52f4a1626514163a58d6ba3264736f6c634300080d0033",
  "immutableReferences": {},
  "source": "pragma solidity ^0.8.0;\r\nimport \"./Context.sol\";\r\nimport \"./ERC20.sol\";\r\n\r\ncontract RPay is Context {\r\n\r\n  struct ProjectStruct {\r\n    uint projectID;\r\n    string name;\r\n    string clientName;\r\n    string meta;\r\n    uint startDate;\r\n    uint dueDate;\r\n    uint endDate;\r\n    address client;\r\n    address token;\r\n    uint value;\r\n    uint deposited;\r\n    uint withdrawnClient;\r\n    uint withdrawnOwner;\r\n    uint discount;\r\n    uint frequency;\r\n    uint clientApproved;\r\n    bool isEntity;\r\n  }\r\n  \r\n  struct MilestoneStruct {\r\n    uint milestoneID;\r\n    uint projectID;\r\n    string name;\r\n    string meta;\r\n    uint startDate;\r\n    uint dueDate;\r\n    uint endDate;\r\n    uint value;\r\n    uint clientApproved;\r\n    bool isEntity;\r\n  }\r\n  \r\n  struct ProxyStruct {\r\n    address toAddress;\r\n    bool canDeposit;\r\n    bool canWithdraw;\r\n    bool isActive;\r\n  }\r\n  \r\n  address private _owner;\r\n  string private _name;\r\n  uint numProjects;\r\n  mapping (uint => ProjectStruct) projects;\r\n  uint numMilestones;\r\n  mapping (uint => MilestoneStruct) milestones;\r\n  mapping (address => ProxyStruct) proxies;\r\n  \r\n  event OwnershipTransferred(address indexed previousOwner, address indexed newOwner);  \r\n  event ProjectCreated(uint indexed id);\r\n  event MilestoneCreated(uint indexed id, uint indexed projectID);\r\n  event Deposit(uint indexed projectID, address indexed userAddress, uint indexed value);\r\n  event WithdrawClient(uint indexed projectID, address indexed userAddress, uint indexed value);\r\n  event WithdrawOwner(uint indexed projectID, address indexed userAddress, uint indexed value);\r\n  event AddProxy(address indexed fromAddress, address indexed toAddress);\r\n  event RemoveProxy(address indexed fromAddress, address indexed toAddress);\r\n  \r\n  constructor(address owner, string memory name) {\r\n    _owner = owner;\r\n    _name = name;\r\n  }\r\n  \r\n  function name() public view returns (string memory) {\r\n    return _name;\r\n  }\r\n  \r\n  function owner() public view returns (address) {\r\n    return _owner;\r\n  }\r\n  \r\n  function calculateTotalWithdrawable(uint projectID, uint num) private returns (uint) {\r\n    //check that num is reasonable\r\n    return num * projects[projectID].value;\r\n  }\r\n  \r\n  function createProject(string memory name, string memory meta, string memory clientName, uint startDate, uint dueDate, address client, address token, uint value, uint frequency) public returns (uint projectID) {\r\n    (address toAddress, bool canDeposit, bool canWithdraw) = getProxy(_msgSender());\r\n    require(toAddress == _owner, \"Only owner can create a project\");\r\n    //only owner or proxy of owner\r\n    projectID = numProjects++;\r\n    ProjectStruct storage p = projects[projectID];\r\n    p.projectID = projectID;\r\n    p.name = name;\r\n    p.clientName = clientName;\r\n    p.meta = meta;\r\n    p.startDate = startDate;\r\n    p.dueDate = dueDate;\r\n    p.client = client;\r\n    p.token = token;\r\n    p.value = value;\r\n    p.frequency = frequency;\r\n    p.isEntity = true;\r\n    emit ProjectCreated(numProjects);\r\n  }\r\n  \r\n  function createMilestone(uint projectID, string calldata name, string calldata meta, uint startDate, uint dueDate, uint value) public returns (uint milestoneID) {\r\n    (address toAddress, bool canDeposit, bool canWithdraw) = getProxy(_msgSender());\r\n    require(toAddress == _owner, \"Only owner can create a milestone\");\r\n    milestoneID = numMilestones++;\r\n    MilestoneStruct storage m = milestones[milestoneID];\r\n    m.milestoneID = milestoneID;\r\n    m.projectID = projectID;\r\n    m.name = name;\r\n    m.meta = meta;\r\n    m.startDate = startDate;\r\n    m.dueDate = dueDate;\r\n    m.value = value;\r\n    m.isEntity = true;\r\n    emit MilestoneCreated(milestoneID, projectID);\r\n  }\r\n  \r\n  function deposit(uint projectID, uint value) public returns (bool) {\r\n    //only client or proxy of a client that can deposit\r\n    (address toAddress, bool canDeposit, bool canWithdraw) = getProxy(_msgSender());\r\n    require(projects[projectID].isEntity, \"Project does not exist\");\r\n    require(toAddress==projects[projectID].client, \"Only project client can deposit\");\r\n    require(canDeposit, \"Deposit prohibited\");\r\n    //TODO transfer funds\r\n    //does user have enough balance?\r\n    uint userBalance = ERC20(projects[projectID].token).balanceOf(_msgSender());\r\n    require(value <= userBalance, \"Not enough funds\");\r\n    bool success = ERC20(projects[projectID].token).transferFrom(_msgSender(), address(this), value);\r\n    if(success) {\r\n      emit Deposit(projectID, _msgSender(), value);\r\n      projects[projectID].deposited += value;\r\n    }\r\n    else {\r\n      revert(\"Error transferring funds\");\r\n    }\r\n  }\r\n  \r\n  function withdrawOwner(uint projectID, uint value, uint num) public returns (bool) {\r\n    //only owner or proxy of a owner that can withdraw\r\n    (address toAddress, bool canDeposit, bool canWithdraw) = getProxy(_msgSender());\r\n    require(toAddress == _owner, \"Only owner can withdraw\");\r\n    require(canWithdraw, \"Withdraw prohibited\");\r\n    require(projects[projectID].isEntity, \"Project does not exist\");\r\n    uint totalWithdrawable = calculateTotalWithdrawable(projectID, num) - projects[projectID].withdrawnOwner;\r\n    uint totalAvailable = projects[projectID].deposited - projects[projectID].withdrawnClient - projects[projectID].withdrawnOwner;\r\n    require(value <= totalWithdrawable, \"Not allowed\");\r\n    require(value <= totalAvailable, \"Not enough funds\");\r\n    uint contractBalance = ERC20(projects[projectID].token).balanceOf(address(this));\r\n    require(value <= contractBalance, \"Not enough funds\");\r\n    uint allowance = ERC20(projects[projectID].token).allowance(address(this), address(this));\r\n    if(allowance==0) {\r\n      ERC20(projects[projectID].token).approve(address(this), 115792089237316195423570985008687907853269984665640564039339051095349628340968);\r\n    }\r\n    bool success = ERC20(projects[projectID].token).transferFrom(address(this), _msgSender(), value);\r\n    if(success) {\r\n      emit WithdrawOwner(projectID, _msgSender(), value);\r\n      projects[projectID].withdrawnOwner += value;\r\n    }\r\n    else {\r\n      revert(\"Error transferring funds\");\r\n    }\r\n  }\r\n  \r\n  function withdrawClient(uint projectID, uint value) public returns (bool) {\r\n    //only client or proxy of a client that can withdraw\r\n    (address toAddress, bool canDeposit, bool canWithdraw) = getProxy(_msgSender());\r\n    require(canWithdraw, \"Withdraw prohibited\");\r\n    require(projects[projectID].isEntity, \"Project does not exist\");\r\n    ProjectStruct memory project = projects[projectID];\r\n    require(toAddress==project.client, \"Only project client can withdraw\");\r\n    uint totalWithdrawable = project.deposited - project.withdrawnClient - project.withdrawnOwner;\r\n    require(value <= totalWithdrawable, \"Not enough funds\");\r\n    //TODO do transfer\r\n    uint contractBalance = ERC20(projects[projectID].token).balanceOf(address(this));\r\n    require(value <= contractBalance, \"Not enough funds\");\r\n    uint allowance = ERC20(projects[projectID].token).allowance(address(this), address(this));\r\n    if(allowance==0) {\r\n      ERC20(projects[projectID].token).approve(address(this), 115792089237316195423570985008687907853269984665640564039339051095349628340968);\r\n    }\r\n    bool success = ERC20(projects[projectID].token).transferFrom(address(this), _msgSender(), value);\r\n    if(success) {\r\n      emit WithdrawClient(projectID, _msgSender(), value);\r\n      projects[projectID].withdrawnClient += value;\r\n    }\r\n    else {\r\n      revert(\"Error transferring funds\");\r\n    }\r\n  }\r\n  \r\n  function getProjects() public view returns (ProjectStruct[] memory) {\r\n    ProjectStruct[] memory ps = new ProjectStruct[](numProjects);\r\n    for(uint i = 0; i < numProjects; i++) {\r\n      ps[i] = projects[i];\r\n    }\r\n    return ps;\r\n  }\r\n  \r\n  function getMilestones() public view returns (MilestoneStruct[] memory) {\r\n    MilestoneStruct[] memory ms = new MilestoneStruct[](numMilestones);\r\n    for(uint i = 0; i < numMilestones; i++) {\r\n      ms[i] = milestones[i];\r\n    }\r\n    return ms;\r\n  }\r\n  \r\n  function transferOwnership(address newOwner) public {\r\n    require(_owner == _msgSender(), \"Caller is not the owner\");\r\n    require(newOwner != address(0), \"New owner is the zero address\");\r\n    _setOwner(newOwner);\r\n  }\r\n  \r\n  function _setOwner(address newOwner) private {\r\n    address oldOwner = _owner;\r\n    _owner = newOwner;\r\n    emit OwnershipTransferred(oldOwner, newOwner);\r\n  }\r\n  \r\n  function addProxy(address proxyAddress, bool canDeposit, bool canWithdraw) public returns (bool) {\r\n    //only owner, client or proxy can proxy\r\n    (uint8 status, address userAddress) = isOwnerClientOrProxy(_msgSender());\r\n    require(status!=0, \"Not authorized\");\r\n    ProxyStruct storage proxy = proxies[proxyAddress];\r\n    proxy.toAddress = _msgSender();\r\n    proxy.canDeposit = canDeposit;\r\n    proxy.canWithdraw = canWithdraw;\r\n    proxy.isActive = true;\r\n    return true;\r\n  }\r\n  \r\n  function removeProxy(address proxyAddress) public {\r\n    //only owner, client or proxy can proxy\r\n    (uint8 status, address userAddress) = isOwnerClientOrProxy(_msgSender());\r\n    require(status!=0, \"Not authorized\");\r\n    ProxyStruct storage proxy = proxies[proxyAddress];\r\n    proxy.isActive = false;\r\n  }\r\n  \r\n  function getProxy(address fromAddress) private view returns (address, bool, bool) {\r\n    bool canDeposit = true;\r\n    bool canWithdraw = true;\r\n    address toAddress = fromAddress;\r\n    if(proxies[toAddress].isActive) {\r\n      canDeposit = proxies[toAddress].canDeposit;\r\n      canWithdraw = proxies[toAddress].canWithdraw;\r\n      while(proxies[toAddress].isActive) {\r\n        toAddress = proxies[toAddress].toAddress;\r\n      }\r\n    }\r\n    return (toAddress, canDeposit, canWithdraw);\r\n  }\r\n  \r\n  function isOwnerClientOrProxy(address userAddress) public view returns (uint8, address) {\r\n    (address toAddress, bool canDeposit, bool canWithdraw) = getProxy(userAddress);\r\n    if(toAddress==_owner) {\r\n      return (1, toAddress);\r\n    }\r\n    for(uint i=0; i<numProjects; i++) {\r\n      if(toAddress==projects[i].client) {\r\n        return (2, toAddress);\r\n      }\r\n    }\r\n    return (0, toAddress);\r\n  }\r\n}",
  "sourcePath": "C:\\Users\\lewis\\DEV\\temp\\rpay\\contracts\\RPay.sol",
  "compiler": {
    "name": "solc",
    "version": "0.8.13+commit.abaa5c0e.Emscripten.clang"
  },
  "schemaVersion": "3.4.5",
  "updatedAt": "2022-04-28T14:09:08.020Z",
  "devdoc": {
    "kind": "dev",
    "methods": {},
    "version": 1
  },
  "userdoc": {
    "kind": "user",
    "methods": {},
    "version": 1
  }
}