{
  "contractName": "TestContract",
  "abi": [
    {
      "inputs": [
        {
          "internalType": "address",
          "name": "",
          "type": "address"
        }
      ],
      "name": "proxies",
      "outputs": [
        {
          "internalType": "address",
          "name": "toAddress",
          "type": "address"
        },
        {
          "internalType": "bool",
          "name": "canDeposit",
          "type": "bool"
        },
        {
          "internalType": "bool",
          "name": "canWithdraw",
          "type": "bool"
        },
        {
          "internalType": "bool",
          "name": "isActive",
          "type": "bool"
        }
      ],
      "stateMutability": "view",
      "type": "function",
      "constant": true
    },
    {
      "inputs": [
        {
          "internalType": "address",
          "name": "testAddress",
          "type": "address"
        }
      ],
      "name": "test",
      "outputs": [
        {
          "internalType": "uint256",
          "name": "",
          "type": "uint256"
        }
      ],
      "stateMutability": "view",
      "type": "function",
      "constant": true
    },
    {
      "inputs": [],
      "name": "tits",
      "outputs": [
        {
          "internalType": "address",
          "name": "",
          "type": "address"
        }
      ],
      "stateMutability": "nonpayable",
      "type": "function"
    },
    {
      "inputs": [
        {
          "internalType": "address",
          "name": "proxyAddress",
          "type": "address"
        },
        {
          "internalType": "bool",
          "name": "canDeposit",
          "type": "bool"
        },
        {
          "internalType": "bool",
          "name": "canWithdraw",
          "type": "bool"
        }
      ],
      "name": "addProxy",
      "outputs": [
        {
          "internalType": "bool",
          "name": "",
          "type": "bool"
        }
      ],
      "stateMutability": "nonpayable",
      "type": "function"
    },
    {
      "inputs": [
        {
          "internalType": "address",
          "name": "proxyAddress",
          "type": "address"
        }
      ],
      "name": "removeProxy",
      "outputs": [],
      "stateMutability": "nonpayable",
      "type": "function"
    },
    {
      "inputs": [
        {
          "internalType": "address",
          "name": "fromAddress",
          "type": "address"
        }
      ],
      "name": "getProxy",
      "outputs": [
        {
          "internalType": "address",
          "name": "",
          "type": "address"
        },
        {
          "internalType": "bool",
          "name": "",
          "type": "bool"
        },
        {
          "internalType": "bool",
          "name": "",
          "type": "bool"
        }
      ],
      "stateMutability": "view",
      "type": "function",
      "constant": true
    }
  ],
  "bytecode": "0x608060405273e21f322b7db098f51f82e715ec7c6d8a60f2cc10600160006101000a81548173ffffffffffffffffffffffffffffffffffffffff021916908373ffffffffffffffffffffffffffffffffffffffff160217905550607b60035534801561006a57600080fd5b506108d18061007a6000396000f3fe608060405234801561001057600080fd5b50600436106100625760003560e01c8063b7fba4d314610067578063b92cc56214610099578063bb29998e146100b7578063be116c3b146100e7578063c455279114610103578063eb4db2a214610136575b600080fd5b610081600480360381019061007c9190610686565b610166565b604051610090939291906106dd565b60405180910390f35b6100a1610343565b6040516100ae9190610714565b60405180910390f35b6100d160048036038101906100cc9190610686565b6103ae565b6040516100de9190610748565b60405180910390f35b61010160048036038101906100fc9190610686565b610453565b005b61011d60048036038101906101189190610686565b6104b6565b60405161012d9493929190610763565b60405180910390f35b610150600480360381019061014b91906107d4565b61052d565b60405161015d9190610827565b60405180910390f35b6000806000806001905060006001905060008690506000808273ffffffffffffffffffffffffffffffffffffffff1673ffffffffffffffffffffffffffffffffffffffff16815260200190815260200160002060000160169054906101000a900460ff1615610330576000808273ffffffffffffffffffffffffffffffffffffffff1673ffffffffffffffffffffffffffffffffffffffff16815260200190815260200160002060000160149054906101000a900460ff1692506000808273ffffffffffffffffffffffffffffffffffffffff1673ffffffffffffffffffffffffffffffffffffffff16815260200190815260200160002060000160159054906101000a900460ff1691505b6000808273ffffffffffffffffffffffffffffffffffffffff1673ffffffffffffffffffffffffffffffffffffffff16815260200190815260200160002060000160169054906101000a900460ff161561032f576000808273ffffffffffffffffffffffffffffffffffffffff1673ffffffffffffffffffffffffffffffffffffffff16815260200190815260200160002060000160009054906101000a900473ffffffffffffffffffffffffffffffffffffffff169050610272565b5b8083839550955095505050509193909250565b600033600260006101000a81548173ffffffffffffffffffffffffffffffffffffffff021916908373ffffffffffffffffffffffffffffffffffffffff160217905550600260009054906101000a900473ffffffffffffffffffffffffffffffffffffffff16905090565b6000600160009054906101000a900473ffffffffffffffffffffffffffffffffffffffff1673ffffffffffffffffffffffffffffffffffffffff166370a08231836040518263ffffffff1660e01b815260040161040b9190610714565b602060405180830381865afa158015610428573d6000803e3d6000fd5b505050506040513d601f19601f8201168201806040525081019061044c919061086e565b9050919050565b60008060008373ffffffffffffffffffffffffffffffffffffffff1673ffffffffffffffffffffffffffffffffffffffff168152602001908152602001600020905060008160000160166101000a81548160ff0219169083151502179055505050565b60006020528060005260406000206000915090508060000160009054906101000a900473ffffffffffffffffffffffffffffffffffffffff16908060000160149054906101000a900460ff16908060000160159054906101000a900460ff16908060000160169054906101000a900460ff16905084565b6000806000808673ffffffffffffffffffffffffffffffffffffffff1673ffffffffffffffffffffffffffffffffffffffff168152602001908152602001600020905061057861061b565b8160000160006101000a81548173ffffffffffffffffffffffffffffffffffffffff021916908373ffffffffffffffffffffffffffffffffffffffff160217905550838160000160146101000a81548160ff021916908315150217905550828160000160156101000a81548160ff02191690831515021790555060018160000160166101000a81548160ff02191690831515021790555060019150509392505050565b600033905090565b600080fd5b600073ffffffffffffffffffffffffffffffffffffffff82169050919050565b600061065382610628565b9050919050565b61066381610648565b811461066e57600080fd5b50565b6000813590506106808161065a565b92915050565b60006020828403121561069c5761069b610623565b5b60006106aa84828501610671565b91505092915050565b6106bc81610648565b82525050565b60008115159050919050565b6106d7816106c2565b82525050565b60006060820190506106f260008301866106b3565b6106ff60208301856106ce565b61070c60408301846106ce565b949350505050565b600060208201905061072960008301846106b3565b92915050565b6000819050919050565b6107428161072f565b82525050565b600060208201905061075d6000830184610739565b92915050565b600060808201905061077860008301876106b3565b61078560208301866106ce565b61079260408301856106ce565b61079f60608301846106ce565b95945050505050565b6107b1816106c2565b81146107bc57600080fd5b50565b6000813590506107ce816107a8565b92915050565b6000806000606084860312156107ed576107ec610623565b5b60006107fb86828701610671565b935050602061080c868287016107bf565b925050604061081d868287016107bf565b9150509250925092565b600060208201905061083c60008301846106ce565b92915050565b61084b8161072f565b811461085657600080fd5b50565b60008151905061086881610842565b92915050565b60006020828403121561088457610883610623565b5b600061089284828501610859565b9150509291505056fea2646970667358221220654b1795faf36a0e5c941c0762647d915bf166031547475a4491bed4c16e080264736f6c634300080d0033",
  "immutableReferences": {},
  "source": "pragma solidity ^0.8.0;\r\n\r\nimport './ERC20.sol';\r\nimport \"./Context.sol\";\r\n\r\ncontract TestContract is Context {\r\n\r\n  struct ProxyStruct {\r\n    address toAddress;\r\n    bool canDeposit;\r\n    bool canWithdraw;\r\n    bool isActive;\r\n  }\r\n  mapping (address => ProxyStruct) public proxies;\r\n  address rain_address = address(0xE21F322b7db098F51f82E715Ec7c6D8A60f2CC10);\r\n  address sender_address;\r\n  uint256 thing = 123;\r\n  function test(address testAddress) public view returns (uint256) {\r\n    return ERC20(rain_address).balanceOf(testAddress);\r\n  }\r\n  function tits() public returns (address) {\r\n    sender_address = msg.sender;\r\n    return sender_address;\r\n  }\r\n  function addProxy(address proxyAddress, bool canDeposit, bool canWithdraw) public returns (bool) {\r\n    ProxyStruct storage proxy = proxies[proxyAddress];\r\n    proxy.toAddress = _msgSender();\r\n    proxy.canDeposit = canDeposit;\r\n    proxy.canWithdraw = canWithdraw;\r\n    proxy.isActive = true;\r\n    return true;\r\n  }\r\n  function removeProxy(address proxyAddress) public {\r\n    ProxyStruct storage proxy = proxies[proxyAddress];\r\n    proxy.isActive = false;\r\n  }\r\n  function getProxy(address fromAddress) public view returns (address, bool, bool) {\r\n    bool canDeposit = true;\r\n    bool canWithdraw = true;\r\n    address toAddress = fromAddress;\r\n    if(proxies[toAddress].isActive) {\r\n      canDeposit = proxies[toAddress].canDeposit;\r\n      canWithdraw = proxies[toAddress].canWithdraw;\r\n      while(proxies[toAddress].isActive) {\r\n        toAddress = proxies[toAddress].toAddress;\r\n      }\r\n    }\r\n    return (toAddress, canDeposit, canWithdraw);\r\n  }\r\n}",
  "sourcePath": "C:\\Users\\lewis\\DEV\\temp\\rpay\\contracts\\TestContract.sol",
  "compiler": {
    "name": "solc",
    "version": "0.8.13+commit.abaa5c0e.Emscripten.clang"
  },
  "schemaVersion": "3.4.5",
  "updatedAt": "2022-04-27T07:36:24.523Z",
  "networkType": "ethereum",
  "devdoc": {
    "kind": "dev",
    "methods": {},
    "version": 1
  },
  "userdoc": {
    "kind": "user",
    "methods": {},
    "version": 1
  }
}